{
  "contractName": "CoinDeltaPoolToken",
  "abi": [
    {
      "inputs": [],
      "stateMutability": "nonpayable",
      "type": "constructor"
    },
    {
      "anonymous": false,
      "inputs": [
        {
          "indexed": true,
          "internalType": "address",
          "name": "owner",
          "type": "address"
        },
        {
          "indexed": true,
          "internalType": "address",
          "name": "spender",
          "type": "address"
        },
        {
          "indexed": false,
          "internalType": "uint256",
          "name": "value",
          "type": "uint256"
        }
      ],
      "name": "Approval",
      "type": "event"
    },
    {
      "anonymous": false,
      "inputs": [
        {
          "indexed": true,
          "internalType": "address",
          "name": "from",
          "type": "address"
        },
        {
          "indexed": true,
          "internalType": "address",
          "name": "to",
          "type": "address"
        },
        {
          "indexed": false,
          "internalType": "uint256",
          "name": "value",
          "type": "uint256"
        }
      ],
      "name": "Transfer",
      "type": "event"
    },
    {
      "inputs": [
        {
          "internalType": "address",
          "name": "owner",
          "type": "address"
        },
        {
          "internalType": "address",
          "name": "spender",
          "type": "address"
        }
      ],
      "name": "allowance",
      "outputs": [
        {
          "internalType": "uint256",
          "name": "",
          "type": "uint256"
        }
      ],
      "stateMutability": "view",
      "type": "function"
    },
    {
      "inputs": [
        {
          "internalType": "address",
          "name": "spender",
          "type": "address"
        },
        {
          "internalType": "uint256",
          "name": "amount",
          "type": "uint256"
        }
      ],
      "name": "approve",
      "outputs": [
        {
          "internalType": "bool",
          "name": "",
          "type": "bool"
        }
      ],
      "stateMutability": "nonpayable",
      "type": "function"
    },
    {
      "inputs": [
        {
          "internalType": "address",
          "name": "account",
          "type": "address"
        }
      ],
      "name": "balanceOf",
      "outputs": [
        {
          "internalType": "uint256",
          "name": "",
          "type": "uint256"
        }
      ],
      "stateMutability": "view",
      "type": "function"
    },
    {
      "inputs": [],
      "name": "decimals",
      "outputs": [
        {
          "internalType": "uint8",
          "name": "",
          "type": "uint8"
        }
      ],
      "stateMutability": "view",
      "type": "function"
    },
    {
      "inputs": [
        {
          "internalType": "address",
          "name": "spender",
          "type": "address"
        },
        {
          "internalType": "uint256",
          "name": "subtractedValue",
          "type": "uint256"
        }
      ],
      "name": "decreaseAllowance",
      "outputs": [
        {
          "internalType": "bool",
          "name": "",
          "type": "bool"
        }
      ],
      "stateMutability": "nonpayable",
      "type": "function"
    },
    {
      "inputs": [
        {
          "internalType": "address",
          "name": "",
          "type": "address"
        }
      ],
      "name": "has_user_created_pool",
      "outputs": [
        {
          "internalType": "bool",
          "name": "",
          "type": "bool"
        }
      ],
      "stateMutability": "view",
      "type": "function"
    },
    {
      "inputs": [
        {
          "internalType": "address",
          "name": "spender",
          "type": "address"
        },
        {
          "internalType": "uint256",
          "name": "addedValue",
          "type": "uint256"
        }
      ],
      "name": "increaseAllowance",
      "outputs": [
        {
          "internalType": "bool",
          "name": "",
          "type": "bool"
        }
      ],
      "stateMutability": "nonpayable",
      "type": "function"
    },
    {
      "inputs": [],
      "name": "name",
      "outputs": [
        {
          "internalType": "string",
          "name": "",
          "type": "string"
        }
      ],
      "stateMutability": "view",
      "type": "function"
    },
    {
      "inputs": [],
      "name": "owner",
      "outputs": [
        {
          "internalType": "address",
          "name": "",
          "type": "address"
        }
      ],
      "stateMutability": "view",
      "type": "function"
    },
    {
      "inputs": [],
      "name": "symbol",
      "outputs": [
        {
          "internalType": "string",
          "name": "",
          "type": "string"
        }
      ],
      "stateMutability": "view",
      "type": "function"
    },
    {
      "inputs": [],
      "name": "totalSupply",
      "outputs": [
        {
          "internalType": "uint256",
          "name": "",
          "type": "uint256"
        }
      ],
      "stateMutability": "view",
      "type": "function"
    },
    {
      "inputs": [
        {
          "internalType": "address",
          "name": "to",
          "type": "address"
        },
        {
          "internalType": "uint256",
          "name": "amount",
          "type": "uint256"
        }
      ],
      "name": "transfer",
      "outputs": [
        {
          "internalType": "bool",
          "name": "",
          "type": "bool"
        }
      ],
      "stateMutability": "nonpayable",
      "type": "function"
    },
    {
      "inputs": [
        {
          "internalType": "address",
          "name": "from",
          "type": "address"
        },
        {
          "internalType": "address",
          "name": "to",
          "type": "address"
        },
        {
          "internalType": "uint256",
          "name": "amount",
          "type": "uint256"
        }
      ],
      "name": "transferFrom",
      "outputs": [
        {
          "internalType": "bool",
          "name": "",
          "type": "bool"
        }
      ],
      "stateMutability": "nonpayable",
      "type": "function"
    },
    {
      "inputs": [
        {
          "internalType": "string",
          "name": "",
          "type": "string"
        }
      ],
      "name": "unique_names",
      "outputs": [
        {
          "internalType": "bool",
          "name": "",
          "type": "bool"
        }
      ],
      "stateMutability": "view",
      "type": "function"
    },
    {
      "inputs": [],
      "name": "contract_call",
      "outputs": [],
      "stateMutability": "nonpayable",
      "type": "function"
    },
    {
      "inputs": [
        {
          "internalType": "address",
          "name": "_user",
          "type": "address"
        }
      ],
      "name": "check_user",
      "outputs": [
        {
          "internalType": "bool",
          "name": "",
          "type": "bool"
        }
      ],
      "stateMutability": "view",
      "type": "function"
    },
    {
      "inputs": [
        {
          "internalType": "string",
          "name": "_name",
          "type": "string"
        }
      ],
      "name": "create_pool",
      "outputs": [],
      "stateMutability": "payable",
      "type": "function"
    }
  ],
  "bytecode": "0x60806040523480156200001157600080fd5b506040518060400160405280601281526020017f436f696e44656c7461506f6f6c546f6b656e00000000000000000000000000008152506040518060400160405280600481526020017f434450540000000000000000000000000000000000000000000000000000000081525081600390816200008f919062000365565b508060049081620000a1919062000365565b50505033600560006101000a81548173ffffffffffffffffffffffffffffffffffffffff021916908373ffffffffffffffffffffffffffffffffffffffff1602179055506200044c565b600081519050919050565b7f4e487b7100000000000000000000000000000000000000000000000000000000600052604160045260246000fd5b7f4e487b7100000000000000000000000000000000000000000000000000000000600052602260045260246000fd5b600060028204905060018216806200016d57607f821691505b60208210810362000183576200018262000125565b5b50919050565b60008190508160005260206000209050919050565b60006020601f8301049050919050565b600082821b905092915050565b600060088302620001ed7fffffffffffffffffffffffffffffffffffffffffffffffffffffffffffffffff82620001ae565b620001f98683620001ae565b95508019841693508086168417925050509392505050565b6000819050919050565b6000819050919050565b600062000246620002406200023a8462000211565b6200021b565b62000211565b9050919050565b6000819050919050565b620002628362000225565b6200027a62000271826200024d565b848454620001bb565b825550505050565b600090565b6200029162000282565b6200029e81848462000257565b505050565b5b81811015620002c657620002ba60008262000287565b600181019050620002a4565b5050565b601f8211156200031557620002df8162000189565b620002ea846200019e565b81016020851015620002fa578190505b6200031262000309856200019e565b830182620002a3565b50505b505050565b600082821c905092915050565b60006200033a600019846008026200031a565b1980831691505092915050565b600062000355838362000327565b9150826002028217905092915050565b6200037082620000eb565b67ffffffffffffffff8111156200038c576200038b620000f6565b5b62000398825462000154565b620003a5828285620002ca565b600060209050601f831160018114620003dd5760008415620003c8578287015190505b620003d4858262000347565b86555062000444565b601f198416620003ed8662000189565b60005b828110156200041757848901518255600182019150602085019450602081019050620003f0565b8683101562000437578489015162000433601f89168262000327565b8355505b6001600288020188555050505b505050505050565b6125d9806200045c6000396000f3fe6080604052600436106100fe5760003560e01c806370a0823111610095578063a457c2d711610064578063a457c2d71461035f578063a9059cbb1461039c578063aa180782146103d9578063dd62ed3e146103f5578063fc4433b114610432576100fe565b806370a082311461028f5780638beda935146102cc5780638da5cb5b1461030957806395d89b4114610334576100fe565b806323b872dd116100d157806323b872dd146101d3578063313ce56714610210578063395093511461023b578063575cf00b14610278576100fe565b806306fdde0314610103578063095ea7b31461012e578063171657511461016b57806318160ddd146101a8575b600080fd5b34801561010f57600080fd5b5061011861046f565b60405161012591906116a8565b60405180910390f35b34801561013a57600080fd5b5061015560048036038101906101509190611772565b610501565b60405161016291906117cd565b60405180910390f35b34801561017757600080fd5b50610192600480360381019061018d91906117e8565b610524565b60405161019f91906117cd565b60405180910390f35b3480156101b457600080fd5b506101bd610544565b6040516101ca9190611824565b60405180910390f35b3480156101df57600080fd5b506101fa60048036038101906101f5919061183f565b61054e565b60405161020791906117cd565b60405180910390f35b34801561021c57600080fd5b5061022561057d565b60405161023291906118ae565b60405180910390f35b34801561024757600080fd5b50610262600480360381019061025d9190611772565b610586565b60405161026f91906117cd565b60405180910390f35b34801561028457600080fd5b5061028d6105bd565b005b34801561029b57600080fd5b506102b660048036038101906102b191906117e8565b6106a4565b6040516102c39190611824565b60405180910390f35b3480156102d857600080fd5b506102f360048036038101906102ee91906119fe565b6106ec565b60405161030091906117cd565b60405180910390f35b34801561031557600080fd5b5061031e610722565b60405161032b9190611a56565b60405180910390f35b34801561034057600080fd5b50610349610748565b60405161035691906116a8565b60405180910390f35b34801561036b57600080fd5b5061038660048036038101906103819190611772565b6107da565b60405161039391906117cd565b60405180910390f35b3480156103a857600080fd5b506103c360048036038101906103be9190611772565b610851565b6040516103d091906117cd565b60405180910390f35b6103f360048036038101906103ee91906119fe565b610874565b005b34801561040157600080fd5b5061041c60048036038101906104179190611a71565b610e50565b6040516104299190611824565b60405180910390f35b34801561043e57600080fd5b50610459600480360381019061045491906117e8565b610ed7565b60405161046691906117cd565b60405180910390f35b60606003805461047e90611ae0565b80601f01602080910402602001604051908101604052809291908181526020018280546104aa90611ae0565b80156104f75780601f106104cc576101008083540402835291602001916104f7565b820191906000526020600020905b8154815290600101906020018083116104da57829003601f168201915b5050505050905090565b60008061050c610f3e565b9050610519818585610f46565b600191505092915050565b60096020528060005260406000206000915054906101000a900460ff1681565b6000600254905090565b600080610559610f3e565b905061056685828561110f565b61057185858561119b565b60019150509392505050565b60006012905090565b600080610591610f3e565b90506105b28185856105a38589610e50565b6105ad9190611b40565b610f46565b600191505092915050565b600660003373ffffffffffffffffffffffffffffffffffffffff1673ffffffffffffffffffffffffffffffffffffffff16815260200190815260200160002060009054906101000a900460ff161561064a576040517f08c379a000000000000000000000000000000000000000000000000000000000815260040161064190611bc0565b60405180910390fd5b6001600660003373ffffffffffffffffffffffffffffffffffffffff1673ffffffffffffffffffffffffffffffffffffffff16815260200190815260200160002060006101000a81548160ff021916908315150217905550565b60008060008373ffffffffffffffffffffffffffffffffffffffff1673ffffffffffffffffffffffffffffffffffffffff168152602001908152602001600020549050919050565b6008818051602081018201805184825260208301602085012081835280955050505050506000915054906101000a900460ff1681565b600560009054906101000a900473ffffffffffffffffffffffffffffffffffffffff1681565b60606004805461075790611ae0565b80601f016020809104026020016040519081016040528092919081815260200182805461078390611ae0565b80156107d05780601f106107a5576101008083540402835291602001916107d0565b820191906000526020600020905b8154815290600101906020018083116107b357829003601f168201915b5050505050905090565b6000806107e5610f3e565b905060006107f38286610e50565b905083811015610838576040517f08c379a000000000000000000000000000000000000000000000000000000000815260040161082f90611c52565b60405180910390fd5b6108458286868403610f46565b60019250505092915050565b60008061085c610f3e565b905061086981858561119b565b600191505092915050565b600660003373ffffffffffffffffffffffffffffffffffffffff1673ffffffffffffffffffffffffffffffffffffffff16815260200190815260200160002060009054906101000a900460ff16610900576040517f08c379a00000000000000000000000000000000000000000000000000000000081526004016108f790611cbe565b60405180910390fd5b6008816040516109109190611d1a565b908152602001604051809103902060009054906101000a900460ff161561096c576040517f08c379a000000000000000000000000000000000000000000000000000000000815260040161096390611d7d565b60405180910390fd5b600960003373ffffffffffffffffffffffffffffffffffffffff1673ffffffffffffffffffffffffffffffffffffffff16815260200190815260200160002060009054906101000a900460ff16156109f9576040517f08c379a00000000000000000000000000000000000000000000000000000000081526004016109f090611de9565b60405180910390fd5b662386f26fc100003411610a42576040517f08c379a0000000000000000000000000000000000000000000000000000000008152600401610a3990611e55565b60405180910390fd5b6801bc16d674ec8000003410610a8d576040517f08c379a0000000000000000000000000000000000000000000000000000000008152600401610a8490611ec1565b60405180910390fd5b600b339080600181540180825580915050600190039060005260206000200160009091909190916101000a81548173ffffffffffffffffffffffffffffffffffffffff021916908373ffffffffffffffffffffffffffffffffffffffff16021790555060006040518060a001604052808381526020013373ffffffffffffffffffffffffffffffffffffffff168152602001348152602001600015158152602001600b805480602002602001604051908101604052809291908181526020018280548015610bb057602002820191906000526020600020905b8160009054906101000a900473ffffffffffffffffffffffffffffffffffffffff1673ffffffffffffffffffffffffffffffffffffffff1681526020019060010190808311610b66575b50505050508152509050600b805480610bcc57610bcb611ee1565b5b6001900381819060005260206000200160006101000a81549073ffffffffffffffffffffffffffffffffffffffff0219169055905560078190806001815401808255809150506001900390600052602060002090600502016000909190919091506000820151816000019081610c4291906120bc565b5060208201518160010160006101000a81548173ffffffffffffffffffffffffffffffffffffffff021916908373ffffffffffffffffffffffffffffffffffffffff1602179055506040820151816002015560608201518160030160006101000a81548160ff0219169083151502179055506080820151816004019080519060200190610cd0929190611571565b5050506001600883604051610ce59190611d1a565b908152602001604051809103902060006101000a81548160ff0219169083151502179055506001600960003373ffffffffffffffffffffffffffffffffffffffff1673ffffffffffffffffffffffffffffffffffffffff16815260200190815260200160002060006101000a81548160ff02191690831515021790555060006001600780549050610d76919061218e565b905034600a600083815260200190815260200160002060003373ffffffffffffffffffffffffffffffffffffffff1673ffffffffffffffffffffffffffffffffffffffff16815260200190815260200160002081905550610dd73334611411565b6801bc16d674ec80000060078281548110610df557610df46121c2565b5b90600052602060002090600502016002015410610e4b57600160078281548110610e2257610e216121c2565b5b906000526020600020906005020160030160006101000a81548160ff0219169083151502179055505b505050565b6000600160008473ffffffffffffffffffffffffffffffffffffffff1673ffffffffffffffffffffffffffffffffffffffff16815260200190815260200160002060008373ffffffffffffffffffffffffffffffffffffffff1673ffffffffffffffffffffffffffffffffffffffff16815260200190815260200160002054905092915050565b6000600660008373ffffffffffffffffffffffffffffffffffffffff1673ffffffffffffffffffffffffffffffffffffffff16815260200190815260200160002060009054906101000a900460ff1615610f345760019050610f39565b600090505b919050565b600033905090565b600073ffffffffffffffffffffffffffffffffffffffff168373ffffffffffffffffffffffffffffffffffffffff1603610fb5576040517f08c379a0000000000000000000000000000000000000000000000000000000008152600401610fac90612263565b60405180910390fd5b600073ffffffffffffffffffffffffffffffffffffffff168273ffffffffffffffffffffffffffffffffffffffff1603611024576040517f08c379a000000000000000000000000000000000000000000000000000000000815260040161101b906122f5565b60405180910390fd5b80600160008573ffffffffffffffffffffffffffffffffffffffff1673ffffffffffffffffffffffffffffffffffffffff16815260200190815260200160002060008473ffffffffffffffffffffffffffffffffffffffff1673ffffffffffffffffffffffffffffffffffffffff168152602001908152602001600020819055508173ffffffffffffffffffffffffffffffffffffffff168373ffffffffffffffffffffffffffffffffffffffff167f8c5be1e5ebec7d5bd14f71427d1e84f3dd0314c0f7b2291e5b200ac8c7c3b925836040516111029190611824565b60405180910390a3505050565b600061111b8484610e50565b90507fffffffffffffffffffffffffffffffffffffffffffffffffffffffffffffffff81146111955781811015611187576040517f08c379a000000000000000000000000000000000000000000000000000000000815260040161117e90612361565b60405180910390fd5b6111948484848403610f46565b5b50505050565b600073ffffffffffffffffffffffffffffffffffffffff168373ffffffffffffffffffffffffffffffffffffffff160361120a576040517f08c379a0000000000000000000000000000000000000000000000000000000008152600401611201906123f3565b60405180910390fd5b600073ffffffffffffffffffffffffffffffffffffffff168273ffffffffffffffffffffffffffffffffffffffff1603611279576040517f08c379a000000000000000000000000000000000000000000000000000000000815260040161127090612485565b60405180910390fd5b611284838383611567565b60008060008573ffffffffffffffffffffffffffffffffffffffff1673ffffffffffffffffffffffffffffffffffffffff1681526020019081526020016000205490508181101561130a576040517f08c379a000000000000000000000000000000000000000000000000000000000815260040161130190612517565b60405180910390fd5b8181036000808673ffffffffffffffffffffffffffffffffffffffff1673ffffffffffffffffffffffffffffffffffffffff16815260200190815260200160002081905550816000808573ffffffffffffffffffffffffffffffffffffffff1673ffffffffffffffffffffffffffffffffffffffff168152602001908152602001600020600082825401925050819055508273ffffffffffffffffffffffffffffffffffffffff168473ffffffffffffffffffffffffffffffffffffffff167fddf252ad1be2c89b69c2b068fc378daa952ba7f163c4a11628f55a4df523b3ef846040516113f89190611824565b60405180910390a361140b84848461156c565b50505050565b600073ffffffffffffffffffffffffffffffffffffffff168273ffffffffffffffffffffffffffffffffffffffff1603611480576040517f08c379a000000000000000000000000000000000000000000000000000000000815260040161147790612583565b60405180910390fd5b61148c60008383611567565b806002600082825461149e9190611b40565b92505081905550806000808473ffffffffffffffffffffffffffffffffffffffff1673ffffffffffffffffffffffffffffffffffffffff168152602001908152602001600020600082825401925050819055508173ffffffffffffffffffffffffffffffffffffffff16600073ffffffffffffffffffffffffffffffffffffffff167fddf252ad1be2c89b69c2b068fc378daa952ba7f163c4a11628f55a4df523b3ef8360405161154f9190611824565b60405180910390a36115636000838361156c565b5050565b505050565b505050565b8280548282559060005260206000209081019282156115ea579160200282015b828111156115e95782518260006101000a81548173ffffffffffffffffffffffffffffffffffffffff021916908373ffffffffffffffffffffffffffffffffffffffff16021790555091602001919060010190611591565b5b5090506115f791906115fb565b5090565b5b808211156116145760008160009055506001016115fc565b5090565b600081519050919050565b600082825260208201905092915050565b60005b83811015611652578082015181840152602081019050611637565b60008484015250505050565b6000601f19601f8301169050919050565b600061167a82611618565b6116848185611623565b9350611694818560208601611634565b61169d8161165e565b840191505092915050565b600060208201905081810360008301526116c2818461166f565b905092915050565b6000604051905090565b600080fd5b600080fd5b600073ffffffffffffffffffffffffffffffffffffffff82169050919050565b6000611709826116de565b9050919050565b611719816116fe565b811461172457600080fd5b50565b60008135905061173681611710565b92915050565b6000819050919050565b61174f8161173c565b811461175a57600080fd5b50565b60008135905061176c81611746565b92915050565b60008060408385031215611789576117886116d4565b5b600061179785828601611727565b92505060206117a88582860161175d565b9150509250929050565b60008115159050919050565b6117c7816117b2565b82525050565b60006020820190506117e260008301846117be565b92915050565b6000602082840312156117fe576117fd6116d4565b5b600061180c84828501611727565b91505092915050565b61181e8161173c565b82525050565b60006020820190506118396000830184611815565b92915050565b600080600060608486031215611858576118576116d4565b5b600061186686828701611727565b935050602061187786828701611727565b92505060406118888682870161175d565b9150509250925092565b600060ff82169050919050565b6118a881611892565b82525050565b60006020820190506118c3600083018461189f565b92915050565b600080fd5b600080fd5b7f4e487b7100000000000000000000000000000000000000000000000000000000600052604160045260246000fd5b61190b8261165e565b810181811067ffffffffffffffff8211171561192a576119296118d3565b5b80604052505050565b600061193d6116ca565b90506119498282611902565b919050565b600067ffffffffffffffff821115611969576119686118d3565b5b6119728261165e565b9050602081019050919050565b82818337600083830152505050565b60006119a161199c8461194e565b611933565b9050828152602081018484840111156119bd576119bc6118ce565b5b6119c884828561197f565b509392505050565b600082601f8301126119e5576119e46118c9565b5b81356119f584826020860161198e565b91505092915050565b600060208284031215611a1457611a136116d4565b5b600082013567ffffffffffffffff811115611a3257611a316116d9565b5b611a3e848285016119d0565b91505092915050565b611a50816116fe565b82525050565b6000602082019050611a6b6000830184611a47565b92915050565b60008060408385031215611a8857611a876116d4565b5b6000611a9685828601611727565b9250506020611aa785828601611727565b9150509250929050565b7f4e487b7100000000000000000000000000000000000000000000000000000000600052602260045260246000fd5b60006002820490506001821680611af857607f821691505b602082108103611b0b57611b0a611ab1565b5b50919050565b7f4e487b7100000000000000000000000000000000000000000000000000000000600052601160045260246000fd5b6000611b4b8261173c565b9150611b568361173c565b9250828201905080821115611b6e57611b6d611b11565b5b92915050565b7f416c726561647920612075736572000000000000000000000000000000000000600082015250565b6000611baa600e83611623565b9150611bb582611b74565b602082019050919050565b60006020820190508181036000830152611bd981611b9d565b9050919050565b7f45524332303a2064656372656173656420616c6c6f77616e63652062656c6f7760008201527f207a65726f000000000000000000000000000000000000000000000000000000602082015250565b6000611c3c602583611623565b9150611c4782611be0565b604082019050919050565b60006020820190508181036000830152611c6b81611c2f565b9050919050565b7f4e6f742061207573657200000000000000000000000000000000000000000000600082015250565b6000611ca8600a83611623565b9150611cb382611c72565b602082019050919050565b60006020820190508181036000830152611cd781611c9b565b9050919050565b600081905092915050565b6000611cf482611618565b611cfe8185611cde565b9350611d0e818560208601611634565b80840191505092915050565b6000611d268284611ce9565b915081905092915050565b7f4e6f74206e6f7420756e69717565000000000000000000000000000000000000600082015250565b6000611d67600e83611623565b9150611d7282611d31565b602082019050919050565b60006020820190508181036000830152611d9681611d5a565b9050919050565b7f596f75206861766520616c72656164792063726561746564206120706f6f6c00600082015250565b6000611dd3601f83611623565b9150611dde82611d9d565b602082019050919050565b60006020820190508181036000830152611e0281611dc6565b9050919050565b7f596f75206d7573742073656e642061746c6561737420302e3031206574686572600082015250565b6000611e3f602083611623565b9150611e4a82611e09565b602082019050919050565b60006020820190508181036000830152611e6e81611e32565b9050919050565b7f4f766572666c6f77000000000000000000000000000000000000000000000000600082015250565b6000611eab600883611623565b9150611eb682611e75565b602082019050919050565b60006020820190508181036000830152611eda81611e9e565b9050919050565b7f4e487b7100000000000000000000000000000000000000000000000000000000600052603160045260246000fd5b60008190508160005260206000209050919050565b60006020601f8301049050919050565b600082821b905092915050565b600060088302611f727fffffffffffffffffffffffffffffffffffffffffffffffffffffffffffffffff82611f35565b611f7c8683611f35565b95508019841693508086168417925050509392505050565b6000819050919050565b6000611fb9611fb4611faf8461173c565b611f94565b61173c565b9050919050565b6000819050919050565b611fd383611f9e565b611fe7611fdf82611fc0565b848454611f42565b825550505050565b600090565b611ffc611fef565b612007818484611fca565b505050565b5b8181101561202b57612020600082611ff4565b60018101905061200d565b5050565b601f8211156120705761204181611f10565b61204a84611f25565b81016020851015612059578190505b61206d61206585611f25565b83018261200c565b50505b505050565b600082821c905092915050565b600061209360001984600802612075565b1980831691505092915050565b60006120ac8383612082565b9150826002028217905092915050565b6120c582611618565b67ffffffffffffffff8111156120de576120dd6118d3565b5b6120e88254611ae0565b6120f382828561202f565b600060209050601f8311600181146121265760008415612114578287015190505b61211e85826120a0565b865550612186565b601f19841661213486611f10565b60005b8281101561215c57848901518255600182019150602085019450602081019050612137565b868310156121795784890151612175601f891682612082565b8355505b6001600288020188555050505b505050505050565b60006121998261173c565b91506121a48361173c565b92508282039050818111156121bc576121bb611b11565b5b92915050565b7f4e487b7100000000000000000000000000000000000000000000000000000000600052603260045260246000fd5b7f45524332303a20617070726f76652066726f6d20746865207a65726f2061646460008201527f7265737300000000000000000000000000000000000000000000000000000000602082015250565b600061224d602483611623565b9150612258826121f1565b604082019050919050565b6000602082019050818103600083015261227c81612240565b9050919050565b7f45524332303a20617070726f766520746f20746865207a65726f20616464726560008201527f7373000000000000000000000000000000000000000000000000000000000000602082015250565b60006122df602283611623565b91506122ea82612283565b604082019050919050565b6000602082019050818103600083015261230e816122d2565b9050919050565b7f45524332303a20696e73756666696369656e7420616c6c6f77616e6365000000600082015250565b600061234b601d83611623565b915061235682612315565b602082019050919050565b6000602082019050818103600083015261237a8161233e565b9050919050565b7f45524332303a207472616e736665722066726f6d20746865207a65726f20616460008201527f6472657373000000000000000000000000000000000000000000000000000000602082015250565b60006123dd602583611623565b91506123e882612381565b604082019050919050565b6000602082019050818103600083015261240c816123d0565b9050919050565b7f45524332303a207472616e7366657220746f20746865207a65726f206164647260008201527f6573730000000000000000000000000000000000000000000000000000000000602082015250565b600061246f602383611623565b915061247a82612413565b604082019050919050565b6000602082019050818103600083015261249e81612462565b9050919050565b7f45524332303a207472616e7366657220616d6f756e742065786365656473206260008201527f616c616e63650000000000000000000000000000000000000000000000000000602082015250565b6000612501602683611623565b915061250c826124a5565b604082019050919050565b60006020820190508181036000830152612530816124f4565b9050919050565b7f45524332303a206d696e7420746f20746865207a65726f206164647265737300600082015250565b600061256d601f83611623565b915061257882612537565b602082019050919050565b6000602082019050818103600083015261259c81612560565b905091905056fea26469706673582212202301efd2249a8f1e3b53b1f6bd0dc5e996f398709c34e237361fc441a14aae5364736f6c63430008110033",
  "immutableReferences": {},
  "source": "// SPDX-License-Identifier: MIT\r\npragma solidity ^0.8.9;\r\n\r\nimport \"@openzeppelin/contracts/token/ERC20/ERC20.sol\";\r\n\r\ncontract CoinDeltaPoolToken is ERC20 {\r\n    address public owner;\r\n    mapping(address => bool) private users;\r\n    struct Pools {\r\n        string name;\r\n        address admin;\r\n        uint pool_funds;\r\n        bool is_filled;\r\n        address[] investors;\r\n    }\r\n    Pools[] private pools;\r\n    mapping(string => bool) public unique_names;\r\n    mapping(address => bool) public has_user_created_pool;\r\n    mapping(uint => mapping(address => uint)) private user_specific_pool_investment;\r\n    address[] private temp_investors;\r\n\r\n    constructor() ERC20(\"CoinDeltaPoolToken\", \"CDPT\") {\r\n        owner = msg.sender;\r\n    }\r\n\r\n    function contract_call() external {\r\n        require(!users[msg.sender], \"Already a user\");\r\n        users[msg.sender] = true;\r\n    }\r\n\r\n    function check_user(address _user) external view returns(bool) {\r\n        if(users[_user]) {\r\n            return true;\r\n        } else {\r\n            return false;\r\n        }\r\n    }\r\n\r\n    function create_pool(string memory _name) external payable {\r\n        require(users[msg.sender], \"Not a user\");\r\n        require(!unique_names[_name], \"Not not unique\");\r\n        require(!has_user_created_pool[msg.sender], \"You have already created a pool\");\r\n        require(msg.value > 0.01 ether, \"You must send atleast 0.01 ether\");\r\n        require(msg.value < 32 ether, \"Overflow\");\r\n\r\n        temp_investors.push(msg.sender);\r\n        Pools memory pool = Pools({\r\n            name: _name,\r\n            admin: msg.sender,\r\n            pool_funds: msg.value,\r\n            is_filled: false,\r\n            investors: temp_investors\r\n        });\r\n        temp_investors.pop();\r\n        pools.push(pool);\r\n\r\n        unique_names[_name] = true;\r\n        has_user_created_pool[msg.sender] = true;\r\n        uint length = pools.length - 1;\r\n        user_specific_pool_investment[length][msg.sender] = msg.value;\r\n        _mint(msg.sender, msg.value);\r\n\r\n        if(pools[length].pool_funds >= 32 ether) {\r\n            pools[length].is_filled = true; \r\n        }\r\n    }\r\n}\r\n",
  "sourcePath": "C:\\Users\\HP\\Desktop\\PoolStaking\\contracts\\Poolstaking.sol",
  "compiler": {
    "name": "solc",
    "version": "0.8.17+commit.8df45f5f.Emscripten.clang"
  },
  "schemaVersion": "3.4.10",
  "updatedAt": "2022-11-21T06:09:39.127Z",
  "devdoc": {
    "kind": "dev",
    "methods": {
      "allowance(address,address)": {
        "details": "See {IERC20-allowance}."
      },
      "approve(address,uint256)": {
        "details": "See {IERC20-approve}. NOTE: If `amount` is the maximum `uint256`, the allowance is not updated on `transferFrom`. This is semantically equivalent to an infinite approval. Requirements: - `spender` cannot be the zero address."
      },
      "balanceOf(address)": {
        "details": "See {IERC20-balanceOf}."
      },
      "decimals()": {
        "details": "Returns the number of decimals used to get its user representation. For example, if `decimals` equals `2`, a balance of `505` tokens should be displayed to a user as `5.05` (`505 / 10 ** 2`). Tokens usually opt for a value of 18, imitating the relationship between Ether and Wei. This is the value {ERC20} uses, unless this function is overridden; NOTE: This information is only used for _display_ purposes: it in no way affects any of the arithmetic of the contract, including {IERC20-balanceOf} and {IERC20-transfer}."
      },
      "decreaseAllowance(address,uint256)": {
        "details": "Atomically decreases the allowance granted to `spender` by the caller. This is an alternative to {approve} that can be used as a mitigation for problems described in {IERC20-approve}. Emits an {Approval} event indicating the updated allowance. Requirements: - `spender` cannot be the zero address. - `spender` must have allowance for the caller of at least `subtractedValue`."
      },
      "increaseAllowance(address,uint256)": {
        "details": "Atomically increases the allowance granted to `spender` by the caller. This is an alternative to {approve} that can be used as a mitigation for problems described in {IERC20-approve}. Emits an {Approval} event indicating the updated allowance. Requirements: - `spender` cannot be the zero address."
      },
      "name()": {
        "details": "Returns the name of the token."
      },
      "symbol()": {
        "details": "Returns the symbol of the token, usually a shorter version of the name."
      },
      "totalSupply()": {
        "details": "See {IERC20-totalSupply}."
      },
      "transfer(address,uint256)": {
        "details": "See {IERC20-transfer}. Requirements: - `to` cannot be the zero address. - the caller must have a balance of at least `amount`."
      },
      "transferFrom(address,address,uint256)": {
        "details": "See {IERC20-transferFrom}. Emits an {Approval} event indicating the updated allowance. This is not required by the EIP. See the note at the beginning of {ERC20}. NOTE: Does not update the allowance if the current allowance is the maximum `uint256`. Requirements: - `from` and `to` cannot be the zero address. - `from` must have a balance of at least `amount`. - the caller must have allowance for ``from``'s tokens of at least `amount`."
      }
    },
    "version": 1
  },
  "userdoc": {
    "kind": "user",
    "methods": {},
    "version": 1
  }
}