{
  "contractName": "CoinDeltaPoolToken",
  "abi": [
    {
      "inputs": [],
      "stateMutability": "nonpayable",
      "type": "constructor"
    },
    {
      "anonymous": false,
      "inputs": [
        {
          "indexed": true,
          "internalType": "address",
          "name": "owner",
          "type": "address"
        },
        {
          "indexed": true,
          "internalType": "address",
          "name": "spender",
          "type": "address"
        },
        {
          "indexed": false,
          "internalType": "uint256",
          "name": "value",
          "type": "uint256"
        }
      ],
      "name": "Approval",
      "type": "event"
    },
    {
      "anonymous": false,
      "inputs": [
        {
          "indexed": true,
          "internalType": "address",
          "name": "from",
          "type": "address"
        },
        {
          "indexed": true,
          "internalType": "address",
          "name": "to",
          "type": "address"
        },
        {
          "indexed": false,
          "internalType": "uint256",
          "name": "value",
          "type": "uint256"
        }
      ],
      "name": "Transfer",
      "type": "event"
    },
    {
      "anonymous": false,
      "inputs": [
        {
          "indexed": false,
          "internalType": "uint256",
          "name": "_id",
          "type": "uint256"
        },
        {
          "indexed": false,
          "internalType": "string",
          "name": "name",
          "type": "string"
        }
      ],
      "name": "pool_filled",
      "type": "event"
    },
    {
      "inputs": [
        {
          "internalType": "address",
          "name": "owner",
          "type": "address"
        },
        {
          "internalType": "address",
          "name": "spender",
          "type": "address"
        }
      ],
      "name": "allowance",
      "outputs": [
        {
          "internalType": "uint256",
          "name": "",
          "type": "uint256"
        }
      ],
      "stateMutability": "view",
      "type": "function"
    },
    {
      "inputs": [
        {
          "internalType": "address",
          "name": "spender",
          "type": "address"
        },
        {
          "internalType": "uint256",
          "name": "amount",
          "type": "uint256"
        }
      ],
      "name": "approve",
      "outputs": [
        {
          "internalType": "bool",
          "name": "",
          "type": "bool"
        }
      ],
      "stateMutability": "nonpayable",
      "type": "function"
    },
    {
      "inputs": [
        {
          "internalType": "address",
          "name": "account",
          "type": "address"
        }
      ],
      "name": "balanceOf",
      "outputs": [
        {
          "internalType": "uint256",
          "name": "",
          "type": "uint256"
        }
      ],
      "stateMutability": "view",
      "type": "function"
    },
    {
      "inputs": [],
      "name": "decimals",
      "outputs": [
        {
          "internalType": "uint8",
          "name": "",
          "type": "uint8"
        }
      ],
      "stateMutability": "view",
      "type": "function"
    },
    {
      "inputs": [
        {
          "internalType": "address",
          "name": "spender",
          "type": "address"
        },
        {
          "internalType": "uint256",
          "name": "subtractedValue",
          "type": "uint256"
        }
      ],
      "name": "decreaseAllowance",
      "outputs": [
        {
          "internalType": "bool",
          "name": "",
          "type": "bool"
        }
      ],
      "stateMutability": "nonpayable",
      "type": "function"
    },
    {
      "inputs": [
        {
          "internalType": "address",
          "name": "",
          "type": "address"
        }
      ],
      "name": "has_user_created_pool",
      "outputs": [
        {
          "internalType": "bool",
          "name": "",
          "type": "bool"
        }
      ],
      "stateMutability": "view",
      "type": "function"
    },
    {
      "inputs": [
        {
          "internalType": "address",
          "name": "spender",
          "type": "address"
        },
        {
          "internalType": "uint256",
          "name": "addedValue",
          "type": "uint256"
        }
      ],
      "name": "increaseAllowance",
      "outputs": [
        {
          "internalType": "bool",
          "name": "",
          "type": "bool"
        }
      ],
      "stateMutability": "nonpayable",
      "type": "function"
    },
    {
      "inputs": [
        {
          "internalType": "uint256",
          "name": "",
          "type": "uint256"
        },
        {
          "internalType": "address",
          "name": "",
          "type": "address"
        }
      ],
      "name": "investor_in_pool",
      "outputs": [
        {
          "internalType": "bool",
          "name": "",
          "type": "bool"
        }
      ],
      "stateMutability": "view",
      "type": "function"
    },
    {
      "inputs": [],
      "name": "name",
      "outputs": [
        {
          "internalType": "string",
          "name": "",
          "type": "string"
        }
      ],
      "stateMutability": "view",
      "type": "function"
    },
    {
      "inputs": [],
      "name": "owner",
      "outputs": [
        {
          "internalType": "address",
          "name": "",
          "type": "address"
        }
      ],
      "stateMutability": "view",
      "type": "function"
    },
    {
      "inputs": [],
      "name": "symbol",
      "outputs": [
        {
          "internalType": "string",
          "name": "",
          "type": "string"
        }
      ],
      "stateMutability": "view",
      "type": "function"
    },
    {
      "inputs": [],
      "name": "totalSupply",
      "outputs": [
        {
          "internalType": "uint256",
          "name": "",
          "type": "uint256"
        }
      ],
      "stateMutability": "view",
      "type": "function"
    },
    {
      "inputs": [
        {
          "internalType": "address",
          "name": "to",
          "type": "address"
        },
        {
          "internalType": "uint256",
          "name": "amount",
          "type": "uint256"
        }
      ],
      "name": "transfer",
      "outputs": [
        {
          "internalType": "bool",
          "name": "",
          "type": "bool"
        }
      ],
      "stateMutability": "nonpayable",
      "type": "function"
    },
    {
      "inputs": [
        {
          "internalType": "address",
          "name": "from",
          "type": "address"
        },
        {
          "internalType": "address",
          "name": "to",
          "type": "address"
        },
        {
          "internalType": "uint256",
          "name": "amount",
          "type": "uint256"
        }
      ],
      "name": "transferFrom",
      "outputs": [
        {
          "internalType": "bool",
          "name": "",
          "type": "bool"
        }
      ],
      "stateMutability": "nonpayable",
      "type": "function"
    },
    {
      "inputs": [
        {
          "internalType": "string",
          "name": "",
          "type": "string"
        }
      ],
      "name": "unique_names",
      "outputs": [
        {
          "internalType": "bool",
          "name": "",
          "type": "bool"
        }
      ],
      "stateMutability": "view",
      "type": "function"
    },
    {
      "inputs": [],
      "name": "contract_call",
      "outputs": [],
      "stateMutability": "nonpayable",
      "type": "function"
    },
    {
      "inputs": [
        {
          "internalType": "address",
          "name": "_user",
          "type": "address"
        }
      ],
      "name": "check_user",
      "outputs": [
        {
          "internalType": "bool",
          "name": "",
          "type": "bool"
        }
      ],
      "stateMutability": "view",
      "type": "function"
    },
    {
      "inputs": [
        {
          "internalType": "string",
          "name": "_name",
          "type": "string"
        }
      ],
      "name": "create_pool",
      "outputs": [],
      "stateMutability": "payable",
      "type": "function"
    },
    {
      "inputs": [
        {
          "internalType": "uint256",
          "name": "_id",
          "type": "uint256"
        }
      ],
      "name": "invest",
      "outputs": [],
      "stateMutability": "payable",
      "type": "function"
    }
  ],
  "bytecode": "0x608060405260006008553480156200001657600080fd5b506040518060400160405280601281526020017f436f696e44656c7461506f6f6c546f6b656e00000000000000000000000000008152506040518060400160405280600481526020017f434450540000000000000000000000000000000000000000000000000000000081525081600390816200009491906200036a565b508060049081620000a691906200036a565b50505033600560006101000a81548173ffffffffffffffffffffffffffffffffffffffff021916908373ffffffffffffffffffffffffffffffffffffffff16021790555062000451565b600081519050919050565b7f4e487b7100000000000000000000000000000000000000000000000000000000600052604160045260246000fd5b7f4e487b7100000000000000000000000000000000000000000000000000000000600052602260045260246000fd5b600060028204905060018216806200017257607f821691505b6020821081036200018857620001876200012a565b5b50919050565b60008190508160005260206000209050919050565b60006020601f8301049050919050565b600082821b905092915050565b600060088302620001f27fffffffffffffffffffffffffffffffffffffffffffffffffffffffffffffffff82620001b3565b620001fe8683620001b3565b95508019841693508086168417925050509392505050565b6000819050919050565b6000819050919050565b60006200024b620002456200023f8462000216565b62000220565b62000216565b9050919050565b6000819050919050565b62000267836200022a565b6200027f620002768262000252565b848454620001c0565b825550505050565b600090565b6200029662000287565b620002a38184846200025c565b505050565b5b81811015620002cb57620002bf6000826200028c565b600181019050620002a9565b5050565b601f8211156200031a57620002e4816200018e565b620002ef84620001a3565b81016020851015620002ff578190505b620003176200030e85620001a3565b830182620002a8565b50505b505050565b600082821c905092915050565b60006200033f600019846008026200031f565b1980831691505092915050565b60006200035a83836200032c565b9150826002028217905092915050565b6200037582620000f0565b67ffffffffffffffff811115620003915762000390620000fb565b5b6200039d825462000159565b620003aa828285620002cf565b600060209050601f831160018114620003e25760008415620003cd578287015190505b620003d985826200034c565b86555062000449565b601f198416620003f2866200018e565b60005b828110156200041c57848901518255600182019150602085019450602081019050620003f5565b868310156200043c578489015162000438601f8916826200032c565b8355505b6001600288020188555050505b505050505050565b612eab80620004616000396000f3fe6080604052600436106101145760003560e01c806370a08231116100a0578063a457c2d711610064578063a457c2d7146103ce578063a9059cbb1461040b578063aa18078214610448578063dd62ed3e14610464578063fc4433b1146104a157610114565b806370a08231146102c157806370a34977146102fe5780638beda9351461033b5780638da5cb5b1461037857806395d89b41146103a357610114565b806323b872dd116100e757806323b872dd146101e95780632afcf48014610226578063313ce56714610242578063395093511461026d578063575cf00b146102aa57610114565b806306fdde0314610119578063095ea7b314610144578063171657511461018157806318160ddd146101be575b600080fd5b34801561012557600080fd5b5061012e6104de565b60405161013b9190611dbb565b60405180910390f35b34801561015057600080fd5b5061016b60048036038101906101669190611e85565b610570565b6040516101789190611ee0565b60405180910390f35b34801561018d57600080fd5b506101a860048036038101906101a39190611efb565b610593565b6040516101b59190611ee0565b60405180910390f35b3480156101ca57600080fd5b506101d36105b3565b6040516101e09190611f37565b60405180910390f35b3480156101f557600080fd5b50610210600480360381019061020b9190611f52565b6105bd565b60405161021d9190611ee0565b60405180910390f35b610240600480360381019061023b9190611fa5565b6105ec565b005b34801561024e57600080fd5b50610257610b54565b6040516102649190611fee565b60405180910390f35b34801561027957600080fd5b50610294600480360381019061028f9190611e85565b610b5d565b6040516102a19190611ee0565b60405180910390f35b3480156102b657600080fd5b506102bf610b94565b005b3480156102cd57600080fd5b506102e860048036038101906102e39190611efb565b610c7b565b6040516102f59190611f37565b60405180910390f35b34801561030a57600080fd5b5061032560048036038101906103209190612009565b610cc3565b6040516103329190611ee0565b60405180910390f35b34801561034757600080fd5b50610362600480360381019061035d919061217e565b610cf2565b60405161036f9190611ee0565b60405180910390f35b34801561038457600080fd5b5061038d610d28565b60405161039a91906121d6565b60405180910390f35b3480156103af57600080fd5b506103b8610d4e565b6040516103c59190611dbb565b60405180910390f35b3480156103da57600080fd5b506103f560048036038101906103f09190611e85565b610de0565b6040516104029190611ee0565b60405180910390f35b34801561041757600080fd5b50610432600480360381019061042d9190611e85565b610e57565b60405161043f9190611ee0565b60405180910390f35b610462600480360381019061045d919061217e565b610e7a565b005b34801561047057600080fd5b5061048b600480360381019061048691906121f1565b611559565b6040516104989190611f37565b60405180910390f35b3480156104ad57600080fd5b506104c860048036038101906104c39190611efb565b6115e0565b6040516104d59190611ee0565b60405180910390f35b6060600380546104ed90612260565b80601f016020809104026020016040519081016040528092919081815260200182805461051990612260565b80156105665780601f1061053b57610100808354040283529160200191610566565b820191906000526020600020905b81548152906001019060200180831161054957829003601f168201915b5050505050905090565b60008061057b61163b565b9050610588818585611643565b600191505092915050565b600a6020528060005260406000206000915054906101000a900460ff1681565b6000600254905090565b6000806105c861163b565b90506105d585828561180c565b6105e0858585611898565b60019150509392505050565b600660003373ffffffffffffffffffffffffffffffffffffffff1673ffffffffffffffffffffffffffffffffffffffff16815260200190815260200160002060009054906101000a900460ff16610678576040517f08c379a000000000000000000000000000000000000000000000000000000000815260040161066f906122dd565b60405180910390fd5b6007818154811061068c5761068b6122fd565b5b906000526020600020906006020160040160009054906101000a900460ff16156106eb576040517f08c379a00000000000000000000000000000000000000000000000000000000081526004016106e290612378565b60405180910390fd5b600854811061072f576040517f08c379a0000000000000000000000000000000000000000000000000000000008152600401610726906123e4565b60405180910390fd5b662386f26fc10000341015610779576040517f08c379a000000000000000000000000000000000000000000000000000000000815260040161077090612450565b60405180910390fd5b6007818154811061078d5761078c6122fd565b5b9060005260206000209060060201600301546801bc16d674ec8000006107b3919061249f565b3411156107f5576040517f08c379a00000000000000000000000000000000000000000000000000000000081526004016107ec9061251f565b60405180910390fd5b6108246007828154811061080c5761080b6122fd565b5b90600052602060002090600602016003015434611b0e565b60078281548110610838576108376122fd565b5b90600052602060002090600602016003018190555060078181548110610861576108606122fd565b5b9060005260206000209060060201600501339080600181540180825580915050600190039060005260206000200160009091909190916101000a81548173ffffffffffffffffffffffffffffffffffffffff021916908373ffffffffffffffffffffffffffffffffffffffff160217905550600c600082815260200190815260200160002060003373ffffffffffffffffffffffffffffffffffffffff1673ffffffffffffffffffffffffffffffffffffffff16815260200190815260200160002060009054906101000a900460ff16610a4d5761098f600b600083815260200190815260200160002060003373ffffffffffffffffffffffffffffffffffffffff1673ffffffffffffffffffffffffffffffffffffffff1681526020019081526020016000205434611b0e565b600b600083815260200190815260200160002060003373ffffffffffffffffffffffffffffffffffffffff1673ffffffffffffffffffffffffffffffffffffffff168152602001908152602001600020819055506001600c600083815260200190815260200160002060003373ffffffffffffffffffffffffffffffffffffffff1673ffffffffffffffffffffffffffffffffffffffff16815260200190815260200160002060006101000a81548160ff0219169083151502179055505b610a573334611b24565b6801bc16d674ec80000060076001600854610a72919061249f565b81548110610a8357610a826122fd565b5b90600052602060002090600602016003015410610b5157600160076001600854610aad919061249f565b81548110610abe57610abd6122fd565b5b906000526020600020906006020160040160006101000a81548160ff0219169083151502179055507f272e6ad52a5100d42ec67dba93688f5348203ca5f126bd348b8a9b680fd6801560076001600854610b18919061249f565b81548110610b2957610b286122fd565b5b906000526020600020906006020160000154604051610b48919061258b565b60405180910390a15b50565b60006012905090565b600080610b6861163b565b9050610b89818585610b7a8589611559565b610b8491906125b9565b611643565b600191505092915050565b600660003373ffffffffffffffffffffffffffffffffffffffff1673ffffffffffffffffffffffffffffffffffffffff16815260200190815260200160002060009054906101000a900460ff1615610c21576040517f08c379a0000000000000000000000000000000000000000000000000000000008152600401610c1890612639565b60405180910390fd5b6001600660003373ffffffffffffffffffffffffffffffffffffffff1673ffffffffffffffffffffffffffffffffffffffff16815260200190815260200160002060006101000a81548160ff021916908315150217905550565b60008060008373ffffffffffffffffffffffffffffffffffffffff1673ffffffffffffffffffffffffffffffffffffffff168152602001908152602001600020549050919050565b600c6020528160005260406000206020528060005260406000206000915091509054906101000a900460ff1681565b6009818051602081018201805184825260208301602085012081835280955050505050506000915054906101000a900460ff1681565b600560009054906101000a900473ffffffffffffffffffffffffffffffffffffffff1681565b606060048054610d5d90612260565b80601f0160208091040260200160405190810160405280929190818152602001828054610d8990612260565b8015610dd65780601f10610dab57610100808354040283529160200191610dd6565b820191906000526020600020905b815481529060010190602001808311610db957829003601f168201915b5050505050905090565b600080610deb61163b565b90506000610df98286611559565b905083811015610e3e576040517f08c379a0000000000000000000000000000000000000000000000000000000008152600401610e35906126cb565b60405180910390fd5b610e4b8286868403611643565b60019250505092915050565b600080610e6261163b565b9050610e6f818585611898565b600191505092915050565b600660003373ffffffffffffffffffffffffffffffffffffffff1673ffffffffffffffffffffffffffffffffffffffff16815260200190815260200160002060009054906101000a900460ff16610f06576040517f08c379a0000000000000000000000000000000000000000000000000000000008152600401610efd906122dd565b60405180910390fd5b600a60003373ffffffffffffffffffffffffffffffffffffffff1673ffffffffffffffffffffffffffffffffffffffff16815260200190815260200160002060009054906101000a900460ff1615610f93576040517f08c379a0000000000000000000000000000000000000000000000000000000008152600401610f8a90612737565b60405180910390fd5b600981604051610fa39190612793565b908152602001604051809103902060009054906101000a900460ff1615610fff576040517f08c379a0000000000000000000000000000000000000000000000000000000008152600401610ff6906127f6565b60405180910390fd5b662386f26fc10000341015611049576040517f08c379a000000000000000000000000000000000000000000000000000000000815260040161104090612450565b60405180910390fd5b6801bc16d674ec800000341115611095576040517f08c379a000000000000000000000000000000000000000000000000000000000815260040161108c9061251f565b60405180910390fd5b600d339080600181540180825580915050600190039060005260206000200160009091909190916101000a81548173ffffffffffffffffffffffffffffffffffffffff021916908373ffffffffffffffffffffffffffffffffffffffff16021790555060006040518060c0016040528060085481526020018381526020013373ffffffffffffffffffffffffffffffffffffffff168152602001348152602001600015158152602001600d8054806020026020016040519081016040528092919081815260200182805480156111c057602002820191906000526020600020905b8160009054906101000a900473ffffffffffffffffffffffffffffffffffffffff1673ffffffffffffffffffffffffffffffffffffffff1681526020019060010190808311611176575b50505050508152509050600d8054806111dc576111db612816565b5b6001900381819060005260206000200160006101000a81549073ffffffffffffffffffffffffffffffffffffffff02191690559055600781908060018154018082558091505060019003906000526020600020906006020160009091909190915060008201518160000155602082015181600101908161125c91906129f1565b5060408201518160020160006101000a81548173ffffffffffffffffffffffffffffffffffffffff021916908373ffffffffffffffffffffffffffffffffffffffff1602179055506060820151816003015560808201518160040160006101000a81548160ff02191690831515021790555060a08201518160050190805190602001906112ea929190611c84565b50505060016009836040516112ff9190612793565b908152602001604051809103902060006101000a81548160ff0219169083151502179055506001600a60003373ffffffffffffffffffffffffffffffffffffffff1673ffffffffffffffffffffffffffffffffffffffff16815260200190815260200160002060006101000a81548160ff02191690831515021790555034600b6000600854815260200190815260200160002060003373ffffffffffffffffffffffffffffffffffffffff1673ffffffffffffffffffffffffffffffffffffffff168152602001908152602001600020819055506001600c6000600854815260200190815260200160002060003373ffffffffffffffffffffffffffffffffffffffff1673ffffffffffffffffffffffffffffffffffffffff16815260200190815260200160002060006101000a81548160ff02191690831515021790555061144b6008546001611b0e565b60088190555061145b3334611b24565b6801bc16d674ec80000060076001600854611476919061249f565b81548110611487576114866122fd565b5b90600052602060002090600602016003015410611555576001600760016008546114b1919061249f565b815481106114c2576114c16122fd565b5b906000526020600020906006020160040160006101000a81548160ff0219169083151502179055507f272e6ad52a5100d42ec67dba93688f5348203ca5f126bd348b8a9b680fd680156007600160085461151c919061249f565b8154811061152d5761152c6122fd565b5b90600052602060002090600602016000015460405161154c919061258b565b60405180910390a15b5050565b6000600160008473ffffffffffffffffffffffffffffffffffffffff1673ffffffffffffffffffffffffffffffffffffffff16815260200190815260200160002060008373ffffffffffffffffffffffffffffffffffffffff1673ffffffffffffffffffffffffffffffffffffffff16815260200190815260200160002054905092915050565b600080600660008473ffffffffffffffffffffffffffffffffffffffff1673ffffffffffffffffffffffffffffffffffffffff16815260200190815260200160002060009054906101000a900460ff16905080915050919050565b600033905090565b600073ffffffffffffffffffffffffffffffffffffffff168373ffffffffffffffffffffffffffffffffffffffff16036116b2576040517f08c379a00000000000000000000000000000000000000000000000000000000081526004016116a990612b35565b60405180910390fd5b600073ffffffffffffffffffffffffffffffffffffffff168273ffffffffffffffffffffffffffffffffffffffff1603611721576040517f08c379a000000000000000000000000000000000000000000000000000000000815260040161171890612bc7565b60405180910390fd5b80600160008573ffffffffffffffffffffffffffffffffffffffff1673ffffffffffffffffffffffffffffffffffffffff16815260200190815260200160002060008473ffffffffffffffffffffffffffffffffffffffff1673ffffffffffffffffffffffffffffffffffffffff168152602001908152602001600020819055508173ffffffffffffffffffffffffffffffffffffffff168373ffffffffffffffffffffffffffffffffffffffff167f8c5be1e5ebec7d5bd14f71427d1e84f3dd0314c0f7b2291e5b200ac8c7c3b925836040516117ff9190611f37565b60405180910390a3505050565b60006118188484611559565b90507fffffffffffffffffffffffffffffffffffffffffffffffffffffffffffffffff81146118925781811015611884576040517f08c379a000000000000000000000000000000000000000000000000000000000815260040161187b90612c33565b60405180910390fd5b6118918484848403611643565b5b50505050565b600073ffffffffffffffffffffffffffffffffffffffff168373ffffffffffffffffffffffffffffffffffffffff1603611907576040517f08c379a00000000000000000000000000000000000000000000000000000000081526004016118fe90612cc5565b60405180910390fd5b600073ffffffffffffffffffffffffffffffffffffffff168273ffffffffffffffffffffffffffffffffffffffff1603611976576040517f08c379a000000000000000000000000000000000000000000000000000000000815260040161196d90612d57565b60405180910390fd5b611981838383611c7a565b60008060008573ffffffffffffffffffffffffffffffffffffffff1673ffffffffffffffffffffffffffffffffffffffff16815260200190815260200160002054905081811015611a07576040517f08c379a00000000000000000000000000000000000000000000000000000000081526004016119fe90612de9565b60405180910390fd5b8181036000808673ffffffffffffffffffffffffffffffffffffffff1673ffffffffffffffffffffffffffffffffffffffff16815260200190815260200160002081905550816000808573ffffffffffffffffffffffffffffffffffffffff1673ffffffffffffffffffffffffffffffffffffffff168152602001908152602001600020600082825401925050819055508273ffffffffffffffffffffffffffffffffffffffff168473ffffffffffffffffffffffffffffffffffffffff167fddf252ad1be2c89b69c2b068fc378daa952ba7f163c4a11628f55a4df523b3ef84604051611af59190611f37565b60405180910390a3611b08848484611c7f565b50505050565b60008183611b1c91906125b9565b905092915050565b600073ffffffffffffffffffffffffffffffffffffffff168273ffffffffffffffffffffffffffffffffffffffff1603611b93576040517f08c379a0000000000000000000000000000000000000000000000000000000008152600401611b8a90612e55565b60405180910390fd5b611b9f60008383611c7a565b8060026000828254611bb191906125b9565b92505081905550806000808473ffffffffffffffffffffffffffffffffffffffff1673ffffffffffffffffffffffffffffffffffffffff168152602001908152602001600020600082825401925050819055508173ffffffffffffffffffffffffffffffffffffffff16600073ffffffffffffffffffffffffffffffffffffffff167fddf252ad1be2c89b69c2b068fc378daa952ba7f163c4a11628f55a4df523b3ef83604051611c629190611f37565b60405180910390a3611c7660008383611c7f565b5050565b505050565b505050565b828054828255906000526020600020908101928215611cfd579160200282015b82811115611cfc5782518260006101000a81548173ffffffffffffffffffffffffffffffffffffffff021916908373ffffffffffffffffffffffffffffffffffffffff16021790555091602001919060010190611ca4565b5b509050611d0a9190611d0e565b5090565b5b80821115611d27576000816000905550600101611d0f565b5090565b600081519050919050565b600082825260208201905092915050565b60005b83811015611d65578082015181840152602081019050611d4a565b60008484015250505050565b6000601f19601f8301169050919050565b6000611d8d82611d2b565b611d978185611d36565b9350611da7818560208601611d47565b611db081611d71565b840191505092915050565b60006020820190508181036000830152611dd58184611d82565b905092915050565b6000604051905090565b600080fd5b600080fd5b600073ffffffffffffffffffffffffffffffffffffffff82169050919050565b6000611e1c82611df1565b9050919050565b611e2c81611e11565b8114611e3757600080fd5b50565b600081359050611e4981611e23565b92915050565b6000819050919050565b611e6281611e4f565b8114611e6d57600080fd5b50565b600081359050611e7f81611e59565b92915050565b60008060408385031215611e9c57611e9b611de7565b5b6000611eaa85828601611e3a565b9250506020611ebb85828601611e70565b9150509250929050565b60008115159050919050565b611eda81611ec5565b82525050565b6000602082019050611ef56000830184611ed1565b92915050565b600060208284031215611f1157611f10611de7565b5b6000611f1f84828501611e3a565b91505092915050565b611f3181611e4f565b82525050565b6000602082019050611f4c6000830184611f28565b92915050565b600080600060608486031215611f6b57611f6a611de7565b5b6000611f7986828701611e3a565b9350506020611f8a86828701611e3a565b9250506040611f9b86828701611e70565b9150509250925092565b600060208284031215611fbb57611fba611de7565b5b6000611fc984828501611e70565b91505092915050565b600060ff82169050919050565b611fe881611fd2565b82525050565b60006020820190506120036000830184611fdf565b92915050565b600080604083850312156120205761201f611de7565b5b600061202e85828601611e70565b925050602061203f85828601611e3a565b9150509250929050565b600080fd5b600080fd5b7f4e487b7100000000000000000000000000000000000000000000000000000000600052604160045260246000fd5b61208b82611d71565b810181811067ffffffffffffffff821117156120aa576120a9612053565b5b80604052505050565b60006120bd611ddd565b90506120c98282612082565b919050565b600067ffffffffffffffff8211156120e9576120e8612053565b5b6120f282611d71565b9050602081019050919050565b82818337600083830152505050565b600061212161211c846120ce565b6120b3565b90508281526020810184848401111561213d5761213c61204e565b5b6121488482856120ff565b509392505050565b600082601f83011261216557612164612049565b5b813561217584826020860161210e565b91505092915050565b60006020828403121561219457612193611de7565b5b600082013567ffffffffffffffff8111156121b2576121b1611dec565b5b6121be84828501612150565b91505092915050565b6121d081611e11565b82525050565b60006020820190506121eb60008301846121c7565b92915050565b6000806040838503121561220857612207611de7565b5b600061221685828601611e3a565b925050602061222785828601611e3a565b9150509250929050565b7f4e487b7100000000000000000000000000000000000000000000000000000000600052602260045260246000fd5b6000600282049050600182168061227857607f821691505b60208210810361228b5761228a612231565b5b50919050565b7f4e6f742061207573657200000000000000000000000000000000000000000000600082015250565b60006122c7600a83611d36565b91506122d282612291565b602082019050919050565b600060208201905081810360008301526122f6816122ba565b9050919050565b7f4e487b7100000000000000000000000000000000000000000000000000000000600052603260045260246000fd5b7f506f6f6c2069732066756c6c0000000000000000000000000000000000000000600082015250565b6000612362600c83611d36565b915061236d8261232c565b602082019050919050565b6000602082019050818103600083015261239181612355565b9050919050565b7f456e74657220612076616c696420706f6f6c2069640000000000000000000000600082015250565b60006123ce601583611d36565b91506123d982612398565b602082019050919050565b600060208201905081810360008301526123fd816123c1565b9050919050565b7f596f75206d7573742073656e642061746c6561737420302e3031206574686572600082015250565b600061243a602083611d36565b915061244582612404565b602082019050919050565b600060208201905081810360008301526124698161242d565b9050919050565b7f4e487b7100000000000000000000000000000000000000000000000000000000600052601160045260246000fd5b60006124aa82611e4f565b91506124b583611e4f565b92508282039050818111156124cd576124cc612470565b5b92915050565b7f4f766572666c6f77000000000000000000000000000000000000000000000000600082015250565b6000612509600883611d36565b9150612514826124d3565b602082019050919050565b60006020820190508181036000830152612538816124fc565b9050919050565b7f506f6f6c2066696c6c6564000000000000000000000000000000000000000000600082015250565b6000612575600b83611d36565b91506125808261253f565b602082019050919050565b60006040820190506125a06000830184611f28565b81810360208301526125b181612568565b905092915050565b60006125c482611e4f565b91506125cf83611e4f565b92508282019050808211156125e7576125e6612470565b5b92915050565b7f416c726561647920612075736572000000000000000000000000000000000000600082015250565b6000612623600e83611d36565b915061262e826125ed565b602082019050919050565b6000602082019050818103600083015261265281612616565b9050919050565b7f45524332303a2064656372656173656420616c6c6f77616e63652062656c6f7760008201527f207a65726f000000000000000000000000000000000000000000000000000000602082015250565b60006126b5602583611d36565b91506126c082612659565b604082019050919050565b600060208201905081810360008301526126e4816126a8565b9050919050565b7f596f75206861766520616c72656164792063726561746564206120706f6f6c00600082015250565b6000612721601f83611d36565b915061272c826126eb565b602082019050919050565b6000602082019050818103600083015261275081612714565b9050919050565b600081905092915050565b600061276d82611d2b565b6127778185612757565b9350612787818560208601611d47565b80840191505092915050565b600061279f8284612762565b915081905092915050565b7f4e616d65206e6f7420756e697175650000000000000000000000000000000000600082015250565b60006127e0600f83611d36565b91506127eb826127aa565b602082019050919050565b6000602082019050818103600083015261280f816127d3565b9050919050565b7f4e487b7100000000000000000000000000000000000000000000000000000000600052603160045260246000fd5b60008190508160005260206000209050919050565b60006020601f8301049050919050565b600082821b905092915050565b6000600883026128a77fffffffffffffffffffffffffffffffffffffffffffffffffffffffffffffffff8261286a565b6128b1868361286a565b95508019841693508086168417925050509392505050565b6000819050919050565b60006128ee6128e96128e484611e4f565b6128c9565b611e4f565b9050919050565b6000819050919050565b612908836128d3565b61291c612914826128f5565b848454612877565b825550505050565b600090565b612931612924565b61293c8184846128ff565b505050565b5b8181101561296057612955600082612929565b600181019050612942565b5050565b601f8211156129a55761297681612845565b61297f8461285a565b8101602085101561298e578190505b6129a261299a8561285a565b830182612941565b50505b505050565b600082821c905092915050565b60006129c8600019846008026129aa565b1980831691505092915050565b60006129e183836129b7565b9150826002028217905092915050565b6129fa82611d2b565b67ffffffffffffffff811115612a1357612a12612053565b5b612a1d8254612260565b612a28828285612964565b600060209050601f831160018114612a5b5760008415612a49578287015190505b612a5385826129d5565b865550612abb565b601f198416612a6986612845565b60005b82811015612a9157848901518255600182019150602085019450602081019050612a6c565b86831015612aae5784890151612aaa601f8916826129b7565b8355505b6001600288020188555050505b505050505050565b7f45524332303a20617070726f76652066726f6d20746865207a65726f2061646460008201527f7265737300000000000000000000000000000000000000000000000000000000602082015250565b6000612b1f602483611d36565b9150612b2a82612ac3565b604082019050919050565b60006020820190508181036000830152612b4e81612b12565b9050919050565b7f45524332303a20617070726f766520746f20746865207a65726f20616464726560008201527f7373000000000000000000000000000000000000000000000000000000000000602082015250565b6000612bb1602283611d36565b9150612bbc82612b55565b604082019050919050565b60006020820190508181036000830152612be081612ba4565b9050919050565b7f45524332303a20696e73756666696369656e7420616c6c6f77616e6365000000600082015250565b6000612c1d601d83611d36565b9150612c2882612be7565b602082019050919050565b60006020820190508181036000830152612c4c81612c10565b9050919050565b7f45524332303a207472616e736665722066726f6d20746865207a65726f20616460008201527f6472657373000000000000000000000000000000000000000000000000000000602082015250565b6000612caf602583611d36565b9150612cba82612c53565b604082019050919050565b60006020820190508181036000830152612cde81612ca2565b9050919050565b7f45524332303a207472616e7366657220746f20746865207a65726f206164647260008201527f6573730000000000000000000000000000000000000000000000000000000000602082015250565b6000612d41602383611d36565b9150612d4c82612ce5565b604082019050919050565b60006020820190508181036000830152612d7081612d34565b9050919050565b7f45524332303a207472616e7366657220616d6f756e742065786365656473206260008201527f616c616e63650000000000000000000000000000000000000000000000000000602082015250565b6000612dd3602683611d36565b9150612dde82612d77565b604082019050919050565b60006020820190508181036000830152612e0281612dc6565b9050919050565b7f45524332303a206d696e7420746f20746865207a65726f206164647265737300600082015250565b6000612e3f601f83611d36565b9150612e4a82612e09565b602082019050919050565b60006020820190508181036000830152612e6e81612e32565b905091905056fea26469706673582212202b97fac2ba8eb6ffc94d97c94d703e827aa52ea086ced2926c9afd4a8517915064736f6c63430008110033",
  "immutableReferences": {},
  "source": "// SPDX-License-Identifier: MIT\r\npragma solidity ^0.8.9;\r\n\r\nimport \"@openzeppelin/contracts/token/ERC20/ERC20.sol\";\r\nimport \"@openzeppelin/contracts/utils/math/SafeMath.sol\";\r\n\r\ncontract CoinDeltaPoolToken is ERC20 {\r\n    using SafeMath for uint256;\r\n\r\n    address public owner;\r\n    mapping(address => bool) private users;\r\n    struct Pools {\r\n        uint id;\r\n        string name;\r\n        address admin;\r\n        uint pool_funds;\r\n        bool is_filled;\r\n        address[] investors;\r\n    }\r\n    Pools[] private pools;\r\n    uint private pools_count = 0;\r\n    mapping(string => bool) public unique_names;\r\n    mapping(address => bool) public has_user_created_pool;\r\n    mapping(uint => mapping(address => uint)) private user_specific_pool_investment;\r\n    mapping(uint => mapping(address => bool)) public investor_in_pool;\r\n    address[] private temp_investors;\r\n\r\n    constructor() ERC20(\"CoinDeltaPoolToken\", \"CDPT\") {\r\n        owner = msg.sender;\r\n    }\r\n\r\n    event pool_filled(uint _id, string name);\r\n\r\n    function contract_call() external {\r\n        require(!users[msg.sender], \"Already a user\");\r\n        users[msg.sender] = true;\r\n    }\r\n\r\n    function check_user(address _user) external view returns(bool) {\r\n        bool result = users[_user];\r\n        return result;\r\n    }\r\n\r\n    function create_pool(string memory _name) external payable {\r\n        require(users[msg.sender], \"Not a user\");\r\n        require(!has_user_created_pool[msg.sender], \"You have already created a pool\");\r\n        require(!unique_names[_name], \"Name not unique\");\r\n        require(msg.value >= 0.01 ether, \"You must send atleast 0.01 ether\");\r\n        require(msg.value <= 32 ether, \"Overflow\");\r\n\r\n        temp_investors.push(msg.sender);\r\n        Pools memory pool = Pools({\r\n            id: pools_count,\r\n            name: _name,\r\n            admin: msg.sender,\r\n            pool_funds: msg.value,\r\n            is_filled: false,\r\n            investors: temp_investors\r\n        });\r\n        temp_investors.pop();\r\n        pools.push(pool);\r\n\r\n        unique_names[_name] = true;\r\n        has_user_created_pool[msg.sender] = true;\r\n        user_specific_pool_investment[pools_count][msg.sender] = msg.value;\r\n        investor_in_pool[pools_count][msg.sender] = true;\r\n        pools_count = SafeMath.add(pools_count, 1);\r\n        _mint(msg.sender, msg.value);\r\n\r\n        if(pools[pools_count - 1].pool_funds >= 32 ether) {\r\n            pools[pools_count - 1].is_filled = true;\r\n            emit pool_filled(pools[pools_count - 1].id, \"Pool filled\");\r\n        }\r\n    }\r\n\r\n    function invest(uint _id) external payable {\r\n        require(users[msg.sender], \"Not a user\");\r\n        require(!pools[_id].is_filled, \"Pool is full\");\r\n        require(_id < pools_count, \"Enter a valid pool id\");\r\n        require(msg.value >= 0.01 ether, \"You must send atleast 0.01 ether\");\r\n        require(msg.value <= 32 ether - pools[_id].pool_funds, \"Overflow\");\r\n\r\n        pools[_id].pool_funds = SafeMath.add(pools[_id].pool_funds, msg.value);\r\n        pools[_id].investors.push(msg.sender);\r\n        if(!investor_in_pool[_id][msg.sender]) {\r\n            user_specific_pool_investment[_id][msg.sender] = SafeMath.add(user_specific_pool_investment[_id][msg.sender], msg.value);\r\n            investor_in_pool[_id][msg.sender] = true;\r\n        }\r\n        _mint(msg.sender, msg.value);\r\n\r\n        if(pools[pools_count - 1].pool_funds >= 32 ether) {\r\n            pools[pools_count - 1].is_filled = true;\r\n            emit pool_filled(pools[pools_count - 1].id, \"Pool filled\");\r\n        }\r\n    }\r\n}\r\n",
  "sourcePath": "C:\\Users\\HP\\Desktop\\PoolStaking\\contracts\\Poolstaking.sol",
  "compiler": {
    "name": "solc",
    "version": "0.8.17+commit.8df45f5f.Emscripten.clang"
  },
  "schemaVersion": "3.4.10",
  "updatedAt": "2022-11-21T21:47:35.318Z",
  "devdoc": {
    "kind": "dev",
    "methods": {
      "allowance(address,address)": {
        "details": "See {IERC20-allowance}."
      },
      "approve(address,uint256)": {
        "details": "See {IERC20-approve}. NOTE: If `amount` is the maximum `uint256`, the allowance is not updated on `transferFrom`. This is semantically equivalent to an infinite approval. Requirements: - `spender` cannot be the zero address."
      },
      "balanceOf(address)": {
        "details": "See {IERC20-balanceOf}."
      },
      "decimals()": {
        "details": "Returns the number of decimals used to get its user representation. For example, if `decimals` equals `2`, a balance of `505` tokens should be displayed to a user as `5.05` (`505 / 10 ** 2`). Tokens usually opt for a value of 18, imitating the relationship between Ether and Wei. This is the value {ERC20} uses, unless this function is overridden; NOTE: This information is only used for _display_ purposes: it in no way affects any of the arithmetic of the contract, including {IERC20-balanceOf} and {IERC20-transfer}."
      },
      "decreaseAllowance(address,uint256)": {
        "details": "Atomically decreases the allowance granted to `spender` by the caller. This is an alternative to {approve} that can be used as a mitigation for problems described in {IERC20-approve}. Emits an {Approval} event indicating the updated allowance. Requirements: - `spender` cannot be the zero address. - `spender` must have allowance for the caller of at least `subtractedValue`."
      },
      "increaseAllowance(address,uint256)": {
        "details": "Atomically increases the allowance granted to `spender` by the caller. This is an alternative to {approve} that can be used as a mitigation for problems described in {IERC20-approve}. Emits an {Approval} event indicating the updated allowance. Requirements: - `spender` cannot be the zero address."
      },
      "name()": {
        "details": "Returns the name of the token."
      },
      "symbol()": {
        "details": "Returns the symbol of the token, usually a shorter version of the name."
      },
      "totalSupply()": {
        "details": "See {IERC20-totalSupply}."
      },
      "transfer(address,uint256)": {
        "details": "See {IERC20-transfer}. Requirements: - `to` cannot be the zero address. - the caller must have a balance of at least `amount`."
      },
      "transferFrom(address,address,uint256)": {
        "details": "See {IERC20-transferFrom}. Emits an {Approval} event indicating the updated allowance. This is not required by the EIP. See the note at the beginning of {ERC20}. NOTE: Does not update the allowance if the current allowance is the maximum `uint256`. Requirements: - `from` and `to` cannot be the zero address. - `from` must have a balance of at least `amount`. - the caller must have allowance for ``from``'s tokens of at least `amount`."
      }
    },
    "version": 1
  },
  "userdoc": {
    "kind": "user",
    "methods": {},
    "version": 1
  }
}