{
  "contractName": "PoolStaking",
  "abi": [
    {
      "inputs": [],
      "stateMutability": "nonpayable",
      "type": "constructor"
    },
    {
      "anonymous": false,
      "inputs": [
        {
          "indexed": false,
          "internalType": "string",
          "name": "message",
          "type": "string"
        }
      ],
      "name": "Log",
      "type": "event"
    },
    {
      "inputs": [
        {
          "internalType": "string",
          "name": "",
          "type": "string"
        }
      ],
      "name": "unique_names",
      "outputs": [
        {
          "internalType": "bool",
          "name": "",
          "type": "bool"
        }
      ],
      "stateMutability": "view",
      "type": "function"
    },
    {
      "stateMutability": "payable",
      "type": "receive"
    },
    {
      "inputs": [],
      "name": "token_address",
      "outputs": [
        {
          "internalType": "address",
          "name": "",
          "type": "address"
        }
      ],
      "stateMutability": "view",
      "type": "function"
    },
    {
      "inputs": [],
      "name": "contract_call",
      "outputs": [],
      "stateMutability": "nonpayable",
      "type": "function"
    },
    {
      "inputs": [
        {
          "internalType": "string",
          "name": "_name",
          "type": "string"
        }
      ],
      "name": "create_pool",
      "outputs": [],
      "stateMutability": "payable",
      "type": "function"
    },
    {
      "inputs": [
        {
          "internalType": "uint256",
          "name": "_id",
          "type": "uint256"
        }
      ],
      "name": "invest",
      "outputs": [],
      "stateMutability": "payable",
      "type": "function"
    }
  ],
  "bytecode": "0x60a060405260006003553480156200001657600080fd5b50600073ffffffffffffffffffffffffffffffffffffffff163373ffffffffffffffffffffffffffffffffffffffff16036200005157600080fd5b30604051620000609062000103565b6200006c919062000207565b604051809103906000f08015801562000089573d6000803e3d6000fd5b5073ffffffffffffffffffffffffffffffffffffffff1660808173ffffffffffffffffffffffffffffffffffffffff1681525050336000806101000a81548173ffffffffffffffffffffffffffffffffffffffff021916908373ffffffffffffffffffffffffffffffffffffffff1602179055506200024e565b611e6f80620021bb83390190565b600082825260208201905092915050565b7f436f696e64656c746120506f6f6c20546f6b656e000000000000000000000000600082015250565b60006200015a60148362000111565b9150620001678262000122565b602082019050919050565b7f4350445400000000000000000000000000000000000000000000000000000000600082015250565b6000620001aa60048362000111565b9150620001b78262000172565b602082019050919050565b600073ffffffffffffffffffffffffffffffffffffffff82169050919050565b6000620001ef82620001c2565b9050919050565b6200020181620001e2565b82525050565b6000606082019050818103600083015262000222816200014b565b9050818103602083015262000237816200019b565b9050620002486040830184620001f6565b92915050565b608051611f43620002786000396000818161062e015281816108850152610f6d0152611f436000f3fe60806040526004361061004e5760003560e01c80632afcf48014610127578063575cf00b146101435780638beda9351461015a5780638c8e8fee14610197578063aa180782146101c257610122565b366101225760008060009054906101000a900473ffffffffffffffffffffffffffffffffffffffff1673ffffffffffffffffffffffffffffffffffffffff163460405161009a906111d4565b60006040518083038185875af1925050503d80600081146100d7576040519150601f19603f3d011682016040523d82523d6000602084013e6100dc565b606091505b5050905080610120576040517f08c379a000000000000000000000000000000000000000000000000000000000815260040161011790611246565b60405180910390fd5b005b600080fd5b610141600480360381019061013c91906112b0565b6101de565b005b34801561014f57600080fd5b50610158610730565b005b34801561016657600080fd5b50610181600480360381019061017c9190611423565b61084b565b60405161018e9190611487565b60405180910390f35b3480156101a357600080fd5b506101ac610881565b6040516101b991906114e3565b60405180910390f35b6101dc60048036038101906101d79190611423565b6108a9565b005b600160003373ffffffffffffffffffffffffffffffffffffffff1673ffffffffffffffffffffffffffffffffffffffff16815260200190815260200160002060009054906101000a900460ff1661026a576040517f08c379a00000000000000000000000000000000000000000000000000000000081526004016102619061154a565b60405180910390fd5b60035481106102ae576040517f08c379a00000000000000000000000000000000000000000000000000000000081526004016102a5906115b6565b60405180910390fd5b600281815481106102c2576102c16115d6565b5b906000526020600020906006020160050160009054906101000a900460ff1615610321576040517f08c379a000000000000000000000000000000000000000000000000000000000815260040161031890611651565b60405180910390fd5b662386f26fc100003373ffffffffffffffffffffffffffffffffffffffff163111610381576040517f08c379a0000000000000000000000000000000000000000000000000000000008152600401610378906116bd565b60405180910390fd5b6103b96801bc16d674ec800000600283815481106103a2576103a16115d6565b5b90600052602060002090600602016004015461105a565b3411156103fb576040517f08c379a00000000000000000000000000000000000000000000000000000000081526004016103f290611729565b60405180910390fd5b6008600082815260200190815260200160002060003373ffffffffffffffffffffffffffffffffffffffff1673ffffffffffffffffffffffffffffffffffffffff16815260200190815260200160002060009054906101000a900460ff166105d45760028181548110610471576104706115d6565b5b9060005260206000209060060201600301339080600181540180825580915050600190039060005260206000200160009091909190916101000a81548173ffffffffffffffffffffffffffffffffffffffff021916908373ffffffffffffffffffffffffffffffffffffffff160217905550610516600282815481106104fa576104f96115d6565b5b906000526020600020906006020160030180549050600161105a565b6007600083815260200190815260200160002060003373ffffffffffffffffffffffffffffffffffffffff1673ffffffffffffffffffffffffffffffffffffffff1681526020019081526020016000208190555060016008600083815260200190815260200160002060003373ffffffffffffffffffffffffffffffffffffffff1673ffffffffffffffffffffffffffffffffffffffff16815260200190815260200160002060006101000a81548160ff0219169083151502179055505b610603600282815481106105eb576105ea6115d6565b5b90600052602060002090600602016004015434611070565b60028281548110610617576106166115d6565b5b9060005260206000209060060201600401819055507f000000000000000000000000000000000000000000000000000000000000000073ffffffffffffffffffffffffffffffffffffffff16634e6ec24733346040518363ffffffff1660e01b8152600401610687929190611758565b600060405180830381600087803b1580156106a157600080fd5b505af11580156106b5573d6000803e3d6000fd5b505050506801bc16d674ec800000600282815481106106d7576106d66115d6565b5b906000526020600020906006020160040154106106f8576106f781611086565b5b7fcf34ef537ac33ee1ac626ca1587a0a7e8e51561e5514f8cb36afa1c5102b3bab604051610725906117cd565b60405180910390a150565b600160003373ffffffffffffffffffffffffffffffffffffffff1673ffffffffffffffffffffffffffffffffffffffff16815260200190815260200160002060009054906101000a900460ff16156107bd576040517f08c379a00000000000000000000000000000000000000000000000000000000081526004016107b490611839565b60405180910390fd5b60018060003373ffffffffffffffffffffffffffffffffffffffff1673ffffffffffffffffffffffffffffffffffffffff16815260200190815260200160002060006101000a81548160ff0219169083151502179055507fcf34ef537ac33ee1ac626ca1587a0a7e8e51561e5514f8cb36afa1c5102b3bab604051610841906118a5565b60405180910390a1565b6004818051602081018201805184825260208301602085012081835280955050505050506000915054906101000a900460ff1681565b60007f0000000000000000000000000000000000000000000000000000000000000000905090565b600160003373ffffffffffffffffffffffffffffffffffffffff1673ffffffffffffffffffffffffffffffffffffffff16815260200190815260200160002060009054906101000a900460ff16610935576040517f08c379a000000000000000000000000000000000000000000000000000000000815260040161092c9061154a565b60405180910390fd5b6004816040516109459190611936565b908152602001604051809103902060009054906101000a900460ff16156109a1576040517f08c379a000000000000000000000000000000000000000000000000000000000815260040161099890611999565b60405180910390fd5b600560003373ffffffffffffffffffffffffffffffffffffffff1673ffffffffffffffffffffffffffffffffffffffff16815260200190815260200160002060009054906101000a900460ff1615610a2e576040517f08c379a0000000000000000000000000000000000000000000000000000000008152600401610a2590611a05565b60405180910390fd5b67016345785d8a00003373ffffffffffffffffffffffffffffffffffffffff163111610a8f576040517f08c379a0000000000000000000000000000000000000000000000000000000008152600401610a86906116bd565b60405180910390fd5b662386f26fc100003411610ad8576040517f08c379a0000000000000000000000000000000000000000000000000000000008152600401610acf90611a71565b60405180910390fd5b6801bc16d674ec800000341115610b24576040517f08c379a0000000000000000000000000000000000000000000000000000000008152600401610b1b90611729565b60405180910390fd5b6006339080600181540180825580915050600190039060005260206000200160009091909190916101000a81548173ffffffffffffffffffffffffffffffffffffffff021916908373ffffffffffffffffffffffffffffffffffffffff16021790555060006040518060c0016040528060035481526020018381526020013373ffffffffffffffffffffffffffffffffffffffff1681526020016006805480602002602001604051908101604052809291908181526020018280548015610c4057602002820191906000526020600020905b8160009054906101000a900473ffffffffffffffffffffffffffffffffffffffff1673ffffffffffffffffffffffffffffffffffffffff1681526020019060010190808311610bf6575b505050505081526020013481526020016000151581525090506006805480610c6b57610c6a611a91565b5b6001900381819060005260206000200160006101000a81549073ffffffffffffffffffffffffffffffffffffffff021916905590556002819080600181540180825580915050600190039060005260206000209060060201600090919091909150600082015181600001556020820151816001019081610ceb9190611ccc565b5060408201518160020160006101000a81548173ffffffffffffffffffffffffffffffffffffffff021916908373ffffffffffffffffffffffffffffffffffffffff1602179055506060820151816003019080519060200190610d4f9291906110fc565b506080820151816004015560a08201518160050160006101000a81548160ff02191690831515021790555050506001600483604051610d8e9190611936565b908152602001604051809103902060006101000a81548160ff0219169083151502179055506001600560003373ffffffffffffffffffffffffffffffffffffffff1673ffffffffffffffffffffffffffffffffffffffff16815260200190815260200160002060006101000a81548160ff021916908315150217905550610e40600260035481548110610e2457610e236115d6565b5b906000526020600020906006020160030180549050600161105a565b60076000600354815260200190815260200160002060003373ffffffffffffffffffffffffffffffffffffffff1673ffffffffffffffffffffffffffffffffffffffff16815260200190815260200160002081905550600160086000600354815260200190815260200160002060003373ffffffffffffffffffffffffffffffffffffffff1673ffffffffffffffffffffffffffffffffffffffff16815260200190815260200160002060006101000a81548160ff0219169083151502179055503460096000600354815260200190815260200160002060003373ffffffffffffffffffffffffffffffffffffffff1673ffffffffffffffffffffffffffffffffffffffff16815260200190815260200160002081905550610f656003546001611070565b6003819055507f000000000000000000000000000000000000000000000000000000000000000073ffffffffffffffffffffffffffffffffffffffff16634e6ec24733346040518363ffffffff1660e01b8152600401610fc6929190611758565b600060405180830381600087803b158015610fe057600080fd5b505af1158015610ff4573d6000803e3d6000fd5b505050507fcf34ef537ac33ee1ac626ca1587a0a7e8e51561e5514f8cb36afa1c5102b3bab60405161102590611dea565b60405180910390a16801bc16d674ec8000003411156110565761105560016003546110509190611e39565b611086565b5b5050565b600081836110689190611e39565b905092915050565b6000818361107e9190611e6d565b905092915050565b60016002828154811061109c5761109b6115d6565b5b906000526020600020906006020160050160006101000a81548160ff0219169083151502179055507fcf34ef537ac33ee1ac626ca1587a0a7e8e51561e5514f8cb36afa1c5102b3bab6040516110f190611eed565b60405180910390a150565b828054828255906000526020600020908101928215611175579160200282015b828111156111745782518260006101000a81548173ffffffffffffffffffffffffffffffffffffffff021916908373ffffffffffffffffffffffffffffffffffffffff1602179055509160200191906001019061111c565b5b5090506111829190611186565b5090565b5b8082111561119f576000816000905550600101611187565b5090565b600081905092915050565b50565b60006111be6000836111a3565b91506111c9826111ae565b600082019050919050565b60006111df826111b1565b9150819050919050565b600082825260208201905092915050565b7f446f6e6174696f6e206e6f74207375636365737366756c000000000000000000600082015250565b60006112306017836111e9565b915061123b826111fa565b602082019050919050565b6000602082019050818103600083015261125f81611223565b9050919050565b6000604051905090565b600080fd5b600080fd5b6000819050919050565b61128d8161127a565b811461129857600080fd5b50565b6000813590506112aa81611284565b92915050565b6000602082840312156112c6576112c5611270565b5b60006112d48482850161129b565b91505092915050565b600080fd5b600080fd5b6000601f19601f8301169050919050565b7f4e487b7100000000000000000000000000000000000000000000000000000000600052604160045260246000fd5b611330826112e7565b810181811067ffffffffffffffff8211171561134f5761134e6112f8565b5b80604052505050565b6000611362611266565b905061136e8282611327565b919050565b600067ffffffffffffffff82111561138e5761138d6112f8565b5b611397826112e7565b9050602081019050919050565b82818337600083830152505050565b60006113c66113c184611373565b611358565b9050828152602081018484840111156113e2576113e16112e2565b5b6113ed8482856113a4565b509392505050565b600082601f83011261140a576114096112dd565b5b813561141a8482602086016113b3565b91505092915050565b60006020828403121561143957611438611270565b5b600082013567ffffffffffffffff81111561145757611456611275565b5b611463848285016113f5565b91505092915050565b60008115159050919050565b6114818161146c565b82525050565b600060208201905061149c6000830184611478565b92915050565b600073ffffffffffffffffffffffffffffffffffffffff82169050919050565b60006114cd826114a2565b9050919050565b6114dd816114c2565b82525050565b60006020820190506114f860008301846114d4565b92915050565b7f4e6f742061207573657200000000000000000000000000000000000000000000600082015250565b6000611534600a836111e9565b915061153f826114fe565b602082019050919050565b6000602082019050818103600083015261156381611527565b9050919050565b7f456e7465722076616c696420706f6f6c20696400000000000000000000000000600082015250565b60006115a06013836111e9565b91506115ab8261156a565b602082019050919050565b600060208201905081810360008301526115cf81611593565b9050919050565b7f4e487b7100000000000000000000000000000000000000000000000000000000600052603260045260246000fd5b7f506f6f6c20697320616c72656164792066756c6c000000000000000000000000600082015250565b600061163b6014836111e9565b915061164682611605565b602082019050919050565b6000602082019050818103600083015261166a8161162e565b9050919050565b7f596f7520646f6e2774206861766520656e6f7567682062616c616e6365000000600082015250565b60006116a7601d836111e9565b91506116b282611671565b602082019050919050565b600060208201905081810360008301526116d68161169a565b9050919050565b7f4f766572666c6f77000000000000000000000000000000000000000000000000600082015250565b60006117136008836111e9565b915061171e826116dd565b602082019050919050565b6000602082019050818103600083015261174281611706565b9050919050565b6117528161127a565b82525050565b600060408201905061176d60008301856114d4565b61177a6020830184611749565b9392505050565b7f496e766573746564205375636365737366756c6c790000000000000000000000600082015250565b60006117b76015836111e9565b91506117c282611781565b602082019050919050565b600060208201905081810360008301526117e6816117aa565b9050919050565b7f416c726561647920612075736572000000000000000000000000000000000000600082015250565b6000611823600e836111e9565b915061182e826117ed565b602082019050919050565b6000602082019050818103600083015261185281611816565b9050919050565b7f557365722072656769737465726564205375636365737366756c6c7900000000600082015250565b600061188f601c836111e9565b915061189a82611859565b602082019050919050565b600060208201905081810360008301526118be81611882565b9050919050565b600081519050919050565b600081905092915050565b60005b838110156118f95780820151818401526020810190506118de565b60008484015250505050565b6000611910826118c5565b61191a81856118d0565b935061192a8185602086016118db565b80840191505092915050565b60006119428284611905565b915081905092915050565b7f4e616d6520616c72656164792065786973747300000000000000000000000000600082015250565b60006119836013836111e9565b915061198e8261194d565b602082019050919050565b600060208201905081810360008301526119b281611976565b9050919050565b7f596f75206861766520616c72656164792063726561746564206120706f6f6c00600082015250565b60006119ef601f836111e9565b91506119fa826119b9565b602082019050919050565b60006020820190508181036000830152611a1e816119e2565b9050919050565b7f4d75737420696e76657374206174206c6561737420302e303120657468657200600082015250565b6000611a5b601f836111e9565b9150611a6682611a25565b602082019050919050565b60006020820190508181036000830152611a8a81611a4e565b9050919050565b7f4e487b7100000000000000000000000000000000000000000000000000000000600052603160045260246000fd5b7f4e487b7100000000000000000000000000000000000000000000000000000000600052602260045260246000fd5b60006002820490506001821680611b0757607f821691505b602082108103611b1a57611b19611ac0565b5b50919050565b60008190508160005260206000209050919050565b60006020601f8301049050919050565b600082821b905092915050565b600060088302611b827fffffffffffffffffffffffffffffffffffffffffffffffffffffffffffffffff82611b45565b611b8c8683611b45565b95508019841693508086168417925050509392505050565b6000819050919050565b6000611bc9611bc4611bbf8461127a565b611ba4565b61127a565b9050919050565b6000819050919050565b611be383611bae565b611bf7611bef82611bd0565b848454611b52565b825550505050565b600090565b611c0c611bff565b611c17818484611bda565b505050565b5b81811015611c3b57611c30600082611c04565b600181019050611c1d565b5050565b601f821115611c8057611c5181611b20565b611c5a84611b35565b81016020851015611c69578190505b611c7d611c7585611b35565b830182611c1c565b50505b505050565b600082821c905092915050565b6000611ca360001984600802611c85565b1980831691505092915050565b6000611cbc8383611c92565b9150826002028217905092915050565b611cd5826118c5565b67ffffffffffffffff811115611cee57611ced6112f8565b5b611cf88254611aef565b611d03828285611c3f565b600060209050601f831160018114611d365760008415611d24578287015190505b611d2e8582611cb0565b865550611d96565b601f198416611d4486611b20565b60005b82811015611d6c57848901518255600182019150602085019450602081019050611d47565b86831015611d895784890151611d85601f891682611c92565b8355505b6001600288020188555050505b505050505050565b7f506f6f6c20637265617465640000000000000000000000000000000000000000600082015250565b6000611dd4600c836111e9565b9150611ddf82611d9e565b602082019050919050565b60006020820190508181036000830152611e0381611dc7565b9050919050565b7f4e487b7100000000000000000000000000000000000000000000000000000000600052601160045260246000fd5b6000611e448261127a565b9150611e4f8361127a565b9250828203905081811115611e6757611e66611e0a565b5b92915050565b6000611e788261127a565b9150611e838361127a565b9250828201905080821115611e9b57611e9a611e0a565b5b92915050565b7f506f6f6c2066756c6c0000000000000000000000000000000000000000000000600082015250565b6000611ed76009836111e9565b9150611ee282611ea1565b602082019050919050565b60006020820190508181036000830152611f0681611eca565b905091905056fea26469706673582212202ceb5a722a9bd59e5c71fdbde214afae402437bb405b6abf8d1d4ce019cf698664736f6c6343000811003360a06040523480156200001157600080fd5b5060405162001e6f38038062001e6f833981810160405281019062000037919062000290565b826003908162000048919062000575565b5081600490816200005a919062000575565b508073ffffffffffffffffffffffffffffffffffffffff1660808173ffffffffffffffffffffffffffffffffffffffff16815250505050506200065c565b6000604051905090565b600080fd5b600080fd5b600080fd5b600080fd5b6000601f19601f8301169050919050565b7f4e487b7100000000000000000000000000000000000000000000000000000000600052604160045260246000fd5b6200010182620000b6565b810181811067ffffffffffffffff82111715620001235762000122620000c7565b5b80604052505050565b60006200013862000098565b9050620001468282620000f6565b919050565b600067ffffffffffffffff821115620001695762000168620000c7565b5b6200017482620000b6565b9050602081019050919050565b60005b83811015620001a157808201518184015260208101905062000184565b60008484015250505050565b6000620001c4620001be846200014b565b6200012c565b905082815260208101848484011115620001e357620001e2620000b1565b5b620001f084828562000181565b509392505050565b600082601f83011262000210576200020f620000ac565b5b815162000222848260208601620001ad565b91505092915050565b600073ffffffffffffffffffffffffffffffffffffffff82169050919050565b600062000258826200022b565b9050919050565b6200026a816200024b565b81146200027657600080fd5b50565b6000815190506200028a816200025f565b92915050565b600080600060608486031215620002ac57620002ab620000a2565b5b600084015167ffffffffffffffff811115620002cd57620002cc620000a7565b5b620002db86828701620001f8565b935050602084015167ffffffffffffffff811115620002ff57620002fe620000a7565b5b6200030d86828701620001f8565b9250506040620003208682870162000279565b9150509250925092565b600081519050919050565b7f4e487b7100000000000000000000000000000000000000000000000000000000600052602260045260246000fd5b600060028204905060018216806200037d57607f821691505b60208210810362000393576200039262000335565b5b50919050565b60008190508160005260206000209050919050565b60006020601f8301049050919050565b600082821b905092915050565b600060088302620003fd7fffffffffffffffffffffffffffffffffffffffffffffffffffffffffffffffff82620003be565b620004098683620003be565b95508019841693508086168417925050509392505050565b6000819050919050565b6000819050919050565b600062000456620004506200044a8462000421565b6200042b565b62000421565b9050919050565b6000819050919050565b620004728362000435565b6200048a62000481826200045d565b848454620003cb565b825550505050565b600090565b620004a162000492565b620004ae81848462000467565b505050565b5b81811015620004d657620004ca60008262000497565b600181019050620004b4565b5050565b601f8211156200052557620004ef8162000399565b620004fa84620003ae565b810160208510156200050a578190505b620005226200051985620003ae565b830182620004b3565b50505b505050565b600082821c905092915050565b60006200054a600019846008026200052a565b1980831691505092915050565b600062000565838362000537565b9150826002028217905092915050565b62000580826200032a565b67ffffffffffffffff8111156200059c576200059b620000c7565b5b620005a8825462000364565b620005b5828285620004da565b600060209050601f831160018114620005ed5760008415620005d8578287015190505b620005e4858262000557565b86555062000654565b601f198416620005fd8662000399565b60005b82811015620006275784890151825560018201915060208501945060208101905062000600565b8683101562000647578489015162000643601f89168262000537565b8355505b6001600288020188555050505b505050505050565b6080516117f06200067f6000396000818161040401526105b201526117f06000f3fe608060405234801561001057600080fd5b50600436106100cf5760003560e01c80634e6ec2471161008c57806395d89b411161006657806395d89b4114610226578063a457c2d714610244578063a9059cbb14610274578063dd62ed3e146102a4576100cf565b80634e6ec247146101be5780636161eb18146101da57806370a08231146101f6576100cf565b806306fdde03146100d4578063095ea7b3146100f257806318160ddd1461012257806323b872dd14610140578063313ce56714610170578063395093511461018e575b600080fd5b6100dc6102d4565b6040516100e99190610f3d565b60405180910390f35b61010c60048036038101906101079190610ff8565b610366565b6040516101199190611053565b60405180910390f35b61012a610389565b604051610137919061107d565b60405180910390f35b61015a60048036038101906101559190611098565b610393565b6040516101679190611053565b60405180910390f35b6101786103c2565b6040516101859190611107565b60405180910390f35b6101a860048036038101906101a39190610ff8565b6103cb565b6040516101b59190611053565b60405180910390f35b6101d860048036038101906101d39190610ff8565b610402565b005b6101f460048036038101906101ef9190610ff8565b6105b0565b005b610210600480360381019061020b9190611122565b6107d5565b60405161021d919061107d565b60405180910390f35b61022e61081d565b60405161023b9190610f3d565b60405180910390f35b61025e60048036038101906102599190610ff8565b6108af565b60405161026b9190611053565b60405180910390f35b61028e60048036038101906102899190610ff8565b610926565b60405161029b9190611053565b60405180910390f35b6102be60048036038101906102b9919061114f565b610949565b6040516102cb919061107d565b60405180910390f35b6060600380546102e3906111be565b80601f016020809104026020016040519081016040528092919081815260200182805461030f906111be565b801561035c5780601f106103315761010080835404028352916020019161035c565b820191906000526020600020905b81548152906001019060200180831161033f57829003601f168201915b5050505050905090565b6000806103716109d0565b905061037e8185856109d8565b600191505092915050565b6000600254905090565b60008061039e6109d0565b90506103ab858285610ba1565b6103b6858585610c2d565b60019150509392505050565b60006012905090565b6000806103d66109d0565b90506103f78185856103e88589610949565b6103f2919061121e565b6109d8565b600191505092915050565b7f000000000000000000000000000000000000000000000000000000000000000073ffffffffffffffffffffffffffffffffffffffff163373ffffffffffffffffffffffffffffffffffffffff161461045a57600080fd5b600073ffffffffffffffffffffffffffffffffffffffff168273ffffffffffffffffffffffffffffffffffffffff16036104c9576040517f08c379a00000000000000000000000000000000000000000000000000000000081526004016104c09061129e565b60405180910390fd5b6104d560008383610ea3565b80600260008282546104e7919061121e565b92505081905550806000808473ffffffffffffffffffffffffffffffffffffffff1673ffffffffffffffffffffffffffffffffffffffff168152602001908152602001600020600082825401925050819055508173ffffffffffffffffffffffffffffffffffffffff16600073ffffffffffffffffffffffffffffffffffffffff167fddf252ad1be2c89b69c2b068fc378daa952ba7f163c4a11628f55a4df523b3ef83604051610598919061107d565b60405180910390a36105ac60008383610ea8565b5050565b7f000000000000000000000000000000000000000000000000000000000000000073ffffffffffffffffffffffffffffffffffffffff163373ffffffffffffffffffffffffffffffffffffffff161461060857600080fd5b600073ffffffffffffffffffffffffffffffffffffffff168273ffffffffffffffffffffffffffffffffffffffff1603610677576040517f08c379a000000000000000000000000000000000000000000000000000000000815260040161066e90611330565b60405180910390fd5b61068382600083610ea3565b60008060008473ffffffffffffffffffffffffffffffffffffffff1673ffffffffffffffffffffffffffffffffffffffff16815260200190815260200160002054905081811015610709576040517f08c379a0000000000000000000000000000000000000000000000000000000008152600401610700906113c2565b60405180910390fd5b8181036000808573ffffffffffffffffffffffffffffffffffffffff1673ffffffffffffffffffffffffffffffffffffffff1681526020019081526020016000208190555081600260008282540392505081905550600073ffffffffffffffffffffffffffffffffffffffff168373ffffffffffffffffffffffffffffffffffffffff167fddf252ad1be2c89b69c2b068fc378daa952ba7f163c4a11628f55a4df523b3ef846040516107bc919061107d565b60405180910390a36107d083600084610ea8565b505050565b60008060008373ffffffffffffffffffffffffffffffffffffffff1673ffffffffffffffffffffffffffffffffffffffff168152602001908152602001600020549050919050565b60606004805461082c906111be565b80601f0160208091040260200160405190810160405280929190818152602001828054610858906111be565b80156108a55780601f1061087a576101008083540402835291602001916108a5565b820191906000526020600020905b81548152906001019060200180831161088857829003601f168201915b5050505050905090565b6000806108ba6109d0565b905060006108c88286610949565b90508381101561090d576040517f08c379a000000000000000000000000000000000000000000000000000000000815260040161090490611454565b60405180910390fd5b61091a82868684036109d8565b60019250505092915050565b6000806109316109d0565b905061093e818585610c2d565b600191505092915050565b6000600160008473ffffffffffffffffffffffffffffffffffffffff1673ffffffffffffffffffffffffffffffffffffffff16815260200190815260200160002060008373ffffffffffffffffffffffffffffffffffffffff1673ffffffffffffffffffffffffffffffffffffffff16815260200190815260200160002054905092915050565b600033905090565b600073ffffffffffffffffffffffffffffffffffffffff168373ffffffffffffffffffffffffffffffffffffffff1603610a47576040517f08c379a0000000000000000000000000000000000000000000000000000000008152600401610a3e906114e6565b60405180910390fd5b600073ffffffffffffffffffffffffffffffffffffffff168273ffffffffffffffffffffffffffffffffffffffff1603610ab6576040517f08c379a0000000000000000000000000000000000000000000000000000000008152600401610aad90611578565b60405180910390fd5b80600160008573ffffffffffffffffffffffffffffffffffffffff1673ffffffffffffffffffffffffffffffffffffffff16815260200190815260200160002060008473ffffffffffffffffffffffffffffffffffffffff1673ffffffffffffffffffffffffffffffffffffffff168152602001908152602001600020819055508173ffffffffffffffffffffffffffffffffffffffff168373ffffffffffffffffffffffffffffffffffffffff167f8c5be1e5ebec7d5bd14f71427d1e84f3dd0314c0f7b2291e5b200ac8c7c3b92583604051610b94919061107d565b60405180910390a3505050565b6000610bad8484610949565b90507fffffffffffffffffffffffffffffffffffffffffffffffffffffffffffffffff8114610c275781811015610c19576040517f08c379a0000000000000000000000000000000000000000000000000000000008152600401610c10906115e4565b60405180910390fd5b610c2684848484036109d8565b5b50505050565b600073ffffffffffffffffffffffffffffffffffffffff168373ffffffffffffffffffffffffffffffffffffffff1603610c9c576040517f08c379a0000000000000000000000000000000000000000000000000000000008152600401610c9390611676565b60405180910390fd5b600073ffffffffffffffffffffffffffffffffffffffff168273ffffffffffffffffffffffffffffffffffffffff1603610d0b576040517f08c379a0000000000000000000000000000000000000000000000000000000008152600401610d0290611708565b60405180910390fd5b610d16838383610ea3565b60008060008573ffffffffffffffffffffffffffffffffffffffff1673ffffffffffffffffffffffffffffffffffffffff16815260200190815260200160002054905081811015610d9c576040517f08c379a0000000000000000000000000000000000000000000000000000000008152600401610d939061179a565b60405180910390fd5b8181036000808673ffffffffffffffffffffffffffffffffffffffff1673ffffffffffffffffffffffffffffffffffffffff16815260200190815260200160002081905550816000808573ffffffffffffffffffffffffffffffffffffffff1673ffffffffffffffffffffffffffffffffffffffff168152602001908152602001600020600082825401925050819055508273ffffffffffffffffffffffffffffffffffffffff168473ffffffffffffffffffffffffffffffffffffffff167fddf252ad1be2c89b69c2b068fc378daa952ba7f163c4a11628f55a4df523b3ef84604051610e8a919061107d565b60405180910390a3610e9d848484610ea8565b50505050565b505050565b505050565b600081519050919050565b600082825260208201905092915050565b60005b83811015610ee7578082015181840152602081019050610ecc565b60008484015250505050565b6000601f19601f8301169050919050565b6000610f0f82610ead565b610f198185610eb8565b9350610f29818560208601610ec9565b610f3281610ef3565b840191505092915050565b60006020820190508181036000830152610f578184610f04565b905092915050565b600080fd5b600073ffffffffffffffffffffffffffffffffffffffff82169050919050565b6000610f8f82610f64565b9050919050565b610f9f81610f84565b8114610faa57600080fd5b50565b600081359050610fbc81610f96565b92915050565b6000819050919050565b610fd581610fc2565b8114610fe057600080fd5b50565b600081359050610ff281610fcc565b92915050565b6000806040838503121561100f5761100e610f5f565b5b600061101d85828601610fad565b925050602061102e85828601610fe3565b9150509250929050565b60008115159050919050565b61104d81611038565b82525050565b60006020820190506110686000830184611044565b92915050565b61107781610fc2565b82525050565b6000602082019050611092600083018461106e565b92915050565b6000806000606084860312156110b1576110b0610f5f565b5b60006110bf86828701610fad565b93505060206110d086828701610fad565b92505060406110e186828701610fe3565b9150509250925092565b600060ff82169050919050565b611101816110eb565b82525050565b600060208201905061111c60008301846110f8565b92915050565b60006020828403121561113857611137610f5f565b5b600061114684828501610fad565b91505092915050565b6000806040838503121561116657611165610f5f565b5b600061117485828601610fad565b925050602061118585828601610fad565b9150509250929050565b7f4e487b7100000000000000000000000000000000000000000000000000000000600052602260045260246000fd5b600060028204905060018216806111d657607f821691505b6020821081036111e9576111e861118f565b5b50919050565b7f4e487b7100000000000000000000000000000000000000000000000000000000600052601160045260246000fd5b600061122982610fc2565b915061123483610fc2565b925082820190508082111561124c5761124b6111ef565b5b92915050565b7f45524332303a206d696e7420746f20746865207a65726f206164647265737300600082015250565b6000611288601f83610eb8565b915061129382611252565b602082019050919050565b600060208201905081810360008301526112b78161127b565b9050919050565b7f45524332303a206275726e2066726f6d20746865207a65726f2061646472657360008201527f7300000000000000000000000000000000000000000000000000000000000000602082015250565b600061131a602183610eb8565b9150611325826112be565b604082019050919050565b600060208201905081810360008301526113498161130d565b9050919050565b7f45524332303a206275726e20616d6f756e7420657863656564732062616c616e60008201527f6365000000000000000000000000000000000000000000000000000000000000602082015250565b60006113ac602283610eb8565b91506113b782611350565b604082019050919050565b600060208201905081810360008301526113db8161139f565b9050919050565b7f45524332303a2064656372656173656420616c6c6f77616e63652062656c6f7760008201527f207a65726f000000000000000000000000000000000000000000000000000000602082015250565b600061143e602583610eb8565b9150611449826113e2565b604082019050919050565b6000602082019050818103600083015261146d81611431565b9050919050565b7f45524332303a20617070726f76652066726f6d20746865207a65726f2061646460008201527f7265737300000000000000000000000000000000000000000000000000000000602082015250565b60006114d0602483610eb8565b91506114db82611474565b604082019050919050565b600060208201905081810360008301526114ff816114c3565b9050919050565b7f45524332303a20617070726f766520746f20746865207a65726f20616464726560008201527f7373000000000000000000000000000000000000000000000000000000000000602082015250565b6000611562602283610eb8565b915061156d82611506565b604082019050919050565b6000602082019050818103600083015261159181611555565b9050919050565b7f45524332303a20696e73756666696369656e7420616c6c6f77616e6365000000600082015250565b60006115ce601d83610eb8565b91506115d982611598565b602082019050919050565b600060208201905081810360008301526115fd816115c1565b9050919050565b7f45524332303a207472616e736665722066726f6d20746865207a65726f20616460008201527f6472657373000000000000000000000000000000000000000000000000000000602082015250565b6000611660602583610eb8565b915061166b82611604565b604082019050919050565b6000602082019050818103600083015261168f81611653565b9050919050565b7f45524332303a207472616e7366657220746f20746865207a65726f206164647260008201527f6573730000000000000000000000000000000000000000000000000000000000602082015250565b60006116f2602383610eb8565b91506116fd82611696565b604082019050919050565b60006020820190508181036000830152611721816116e5565b9050919050565b7f45524332303a207472616e7366657220616d6f756e742065786365656473206260008201527f616c616e63650000000000000000000000000000000000000000000000000000602082015250565b6000611784602683610eb8565b915061178f82611728565b604082019050919050565b600060208201905081810360008301526117b381611777565b905091905056fea26469706673582212208a58a51e000b4bbbb51e0be170a9407d24fcc744d933d7e8ea31617fae18dc6d64736f6c63430008110033",
  "immutableReferences": {
    "1055": [
      {
        "length": 32,
        "start": 1582
      },
      {
        "length": 32,
        "start": 2181
      },
      {
        "length": 32,
        "start": 3949
      }
    ]
  },
  "source": "// SPDX-License-Identifier: MIT\r\npragma solidity ^0.8.9;\r\n\r\nimport \"@openzeppelin/contracts/token/ERC20/ERC20.sol\";\r\nimport \"@openzeppelin/contracts/utils/math/SafeMath.sol\";\r\n\r\ncontract PoolStaking {\r\n    using SafeMath for uint256;\r\n\r\n    ERC20 private immutable pool_token;\r\n    address admin;\r\n    mapping(address => bool) private users;\r\n    struct Pools {\r\n        uint id;\r\n        string name;\r\n        address owner;\r\n        address[] investors;\r\n        uint funds;\r\n        bool is_filled;\r\n    }\r\n    Pools[] private pools;\r\n    uint private pools_count = 0;\r\n    mapping(string => bool) public unique_names;\r\n    mapping(address => bool) private has_user_created_pool;\r\n    address[] private temp_investors;\r\n    mapping(uint => mapping(address => uint)) private user_index_in_pool;\r\n    mapping(uint => mapping(address => bool)) private user_in_pool;\r\n    mapping(uint => mapping(address => uint)) private user_specific_pool_stake;\r\n\r\n    constructor() {\r\n        require(msg.sender != address(0));\r\n\r\n        pool_token = new ERC20(\"Coindelta Pool Token\", \"CPDT\", address(this));\r\n        admin = msg.sender;\r\n    }\r\n\r\n    receive() external payable {\r\n        (bool success, ) = payable(admin).call{value: msg.value}(\"\");\r\n        require(success, \"Donation not successful\");\r\n    }\r\n\r\n    event Log(string message);\r\n\r\n    function pool_filled(uint _id) internal {\r\n        pools[_id].is_filled = true;\r\n        emit Log(\"Pool full\");\r\n    }\r\n\r\n    function token_address() external view returns(address) {\r\n        return address(pool_token);\r\n    }\r\n\r\n    function contract_call() external {\r\n        require(!users[msg.sender], \"Already a user\");\r\n        users[msg.sender] = true;\r\n\r\n        emit Log(\"User registered Successfully\");\r\n    }\r\n\r\n    function create_pool(string memory _name) external payable {\r\n        require(users[msg.sender], \"Not a user\");\r\n        require(!unique_names[_name], \"Name already exists\");\r\n        require(!has_user_created_pool[msg.sender], \"You have already created a pool\");\r\n        require(payable(msg.sender).balance > 0.1 ether, \"You don't have enough balance\");\r\n        require(msg.value > 0.01 ether, \"Must invest at least 0.01 ether\");\r\n        require(msg.value <= 32 ether, \"Overflow\");\r\n\r\n        temp_investors.push(msg.sender);\r\n        Pools memory pool = Pools({\r\n            id: pools_count,\r\n            name: _name,\r\n            owner: msg.sender,\r\n            investors: temp_investors,\r\n            funds: msg.value,\r\n            is_filled: false\r\n        });\r\n        temp_investors.pop();\r\n\r\n        pools.push(pool);\r\n        unique_names[_name] = true;\r\n        has_user_created_pool[msg.sender] = true;\r\n        user_index_in_pool[pools_count][msg.sender] = SafeMath.sub(pools[pools_count].investors.length, 1);\r\n        user_in_pool[pools_count][msg.sender] = true;\r\n        user_specific_pool_stake[pools_count][msg.sender] = msg.value;\r\n        pools_count = SafeMath.add(pools_count, 1);\r\n        pool_token._mint(msg.sender, msg.value);\r\n\r\n        emit Log(\"Pool created\");\r\n        if(msg.value > 32 ether) {\r\n            pool_filled(pools_count - 1);\r\n        }\r\n    }\r\n\r\n    function invest(uint _id) external payable {\r\n        require(users[msg.sender], \"Not a user\");\r\n        require(_id < pools_count, \"Enter valid pool id\");\r\n        require(!pools[_id].is_filled, \"Pool is already full\");\r\n        require(payable(msg.sender).balance > 0.01 ether, \"You don't have enough balance\");\r\n        require(msg.value <= SafeMath.sub(32 ether, pools[_id].funds), \"Overflow\");\r\n\r\n        if(!user_in_pool[_id][msg.sender]) {\r\n            pools[_id].investors.push(msg.sender);\r\n            user_index_in_pool[_id][msg.sender] = SafeMath.sub(pools[_id].investors.length, 1);\r\n            user_in_pool[_id][msg.sender] = true;\r\n        }\r\n\r\n        pools[_id].funds = SafeMath.add(pools[_id].funds, msg.value);\r\n        pool_token._mint(msg.sender, msg.value);\r\n\r\n        if(pools[_id].funds >= 32 ether) {\r\n            pool_filled(_id);\r\n        }\r\n\r\n        emit Log(\"Invested Successfully\");\r\n    }\r\n}",
  "sourcePath": "C:\\Users\\HP\\Desktop\\PoolStaking\\contracts\\Poolstaking.sol",
  "compiler": {
    "name": "solc",
    "version": "0.8.17+commit.8df45f5f.Emscripten.clang"
  },
  "schemaVersion": "3.4.10",
  "updatedAt": "2022-11-23T05:16:29.441Z",
  "devdoc": {
    "kind": "dev",
    "methods": {},
    "version": 1
  },
  "userdoc": {
    "kind": "user",
    "methods": {},
    "version": 1
  }
}